:020000040800F2
:10000000000001205D560008592A00085D2A0008FA
:10001000712A0008732A0008792A000800000000ED
:10002000000000000000000000000000E152000895
:100030007F2A00080000000071530008D553000813
:10004000AD560008AD560008AD560008AD56000884
:10005000AD560008AD560008AD560008812A0008CC
:10006000872A00088D2A0008932A0008AD56000848
:10007000992A0008A52A0008AD560008AD560008C8
:10008000BD2A0008B12A0008AD560008AD56000888
:10009000AD560008AD560008AD560008C92A000844
:1000A000AD560008352B0008AD560008AD560008C7
:1000B000DD2A0008E92A0008AD560008F52A0008E4
:1000C000012B0008AD560008AD560008AD560008DB
:1000D000AD560008AD560008AD560008AD560008F4
:1000E0000D2B0008AD560008AD560008AD560008AF
:1000F000AD560008AD560008AD560008AD560008D4
:10010000AD5600080000000000000000AD560008D9
:10011000C5340008AD560008AD560008AD560008BD
:10012000AD560008AD560008F9340008AD56000879
:10013000ED340008AD56000800000000000000008B
:10014000AD560008AD560008AD560008000000008E
:10015000000000000000000000000000000000009F
:10016000AD560008AD560008AD560008AD56000863
:10017000AD560008AD560008AD560008AD56000853
:10018000AD560008AD560008000000000000000059
:04019000AD56000860
:1001A00010B5054C237833B9044B13B10448AFF3B1
:1001B00000800123237010BD200A002000000000F1
:1001C000B4E9000808B5034B1BB103490348AFF37A
:1001D000008008BD00000000240A0020B4E90008E7
:1001E00081F0004102E000BF83F0004330B54FEAE8
:1001F00041044FEA430594EA050F08BF90EA020F55
:100200001FBF54EA000C55EA020C7FEA645C7FEAE7
:10021000655C00F0E2804FEA5454D4EB5555B8BF0A
:100220006D420CDD2C4480EA020281EA030382EA7B
:10023000000083EA010180EA020281EA0303362D0D
:1002400088BF30BD11F0004F4FEA01314FF4801CE0
:100250004CEA113102D0404261EB410113F0004FF2
:100260004FEA03334CEA133302D0524263EB4303A9
:1002700094EA050F00F0A780A4F10104D5F1200E47
:100280000DDB02FA0EFC22FA05F2801841F10001A2
:1002900003FA0EF2801843FA05F359410EE0A5F176
:1002A00020050EF1200E012A03FA0EFC28BF4CF0A7
:1002B000020C43FA05F3C01851EBE37101F000455D
:1002C00007D54FF0000EDCF1000C7EEB00006EEB6A
:1002D0000101B1F5801F1BD3B1F5001F0CD34908F4
:1002E0005FEA30004FEA3C0C04F101044FEA44524B
:1002F00012F5800F80F09A80BCF1004F08BF5FEAD2
:10030000500C50F1000041EB045141EA050130BDB1
:100310005FEA4C0C404141EB010111F4801FA4F154
:100320000104E9D191F0000F04BF01460020B1FAA9
:1003300081F308BF2033A3F10B03B3F120020CDAE1
:100340000C3208DD02F1140CC2F10C0201FA0CF0BF
:1003500021FA02F10CE002F11402D8BFC2F1200C24
:1003600001FA02F120FA0CFCDCBF41EA0C019040DA
:10037000E41AA2BF01EB0451294330BD6FEA040423
:100380001F3C1CDA0C340EDC04F11404C4F120020E
:1003900020FA04F001FA02F340EA030021FA04F320
:1003A00045EA030130BDC4F10C04C4F1200220FA77
:1003B00002F001FA04F340EA0300294630BD21FAB5
:1003C00004F0294630BD94F0000F83F4801306BF7B
:1003D00081F480110134013D4EE77FEA645C18BF6F
:1003E0007FEA655C29D094EA050F08BF90EA020F06
:1003F00005D054EA000C04BF1946104630BD91EAFE
:10040000030F1EBF0021002030BD5FEA545C05D100
:100410004000494128BF41F0004130BD14F580043F
:100420003CBF01F5801130BD01F0004545F0FE41B3
:1004300041F470014FF0000030BD7FEA645C1ABFE8
:10044000194610467FEA655C1CBF0B46024650EA1F
:10045000013406BF52EA033591EA030F41F400214B
:1004600030BD00BF90F0000F04BF0021704730B5D1
:100470004FF4806404F132044FF000054FF00001A6
:1004800050E700BF90F0000F04BF0021704730B567
:100490004FF4806404F1320410F0004548BF40423C
:1004A0004FF000013EE700BF42004FEAE2014FEA91
:1004B00031014FEA02701FBF12F07F4393F07F4F6C
:1004C00081F06051704732F07F4208BF704793F06F
:1004D0007F4F04BF41F40021704730B54FF4607482
:1004E00001F0004521F000411CE700BF50EA010285
:1004F00008BF704730B54FF000050AE050EA01022E
:1005000008BF704730B511F0004502D5404261EB9D
:1005100041014FF4806404F132045FEA915C3FF4DE
:10052000D8AE4FF003025FEADC0C18BF03325FEA7B
:10053000DC0C18BF033202EBDC02C2F1200300FA2C
:1005400003FC20FA02F001FA03FE40EA0E0021FA51
:1005500002F11444BDE600BF70B54FF0FF0C4CF43F
:10056000E06C1CEA11541DBF1CEA135594EA0C0FF1
:1005700095EA0C0F00F0DEF82C4481EA030621EA2C
:100580004C5123EA4C5350EA013518BF52EA033567
:1005900041F4801143F4801338D0A0FB02CE4FF019
:1005A0000005E1FB02E506F00042E0FB03E54FF049
:1005B0000006E1FB03569CF0000F18BF4EF0010E41
:1005C000A4F1FF04B6F5007F64F5407404D25FEA3D
:1005D0004E0E6D4146EB060642EAC62141EA5551F0
:1005E0004FEAC52040EA5E504FEACE2EB4F1FD0C32
:1005F00088BFBCF5E06F1ED8BEF1004F08BF5FEAB0
:10060000500E50F1000041EB045170BD06F0004661
:1006100046EA010140EA020081EA0301B4EB5C040E
:10062000C2BFD4EB0C0541EA045170BD41F4801106
:100630004FF0000E013C00F3AB8014F1360FDEBF2B
:10064000002001F0004170BDC4F10004203C35DA07
:100650000C341BDC04F11404C4F1200500FA05F38A
:1006600020FA04F001FA05F240EA020001F000422B
:1006700021F0004110EBD37021FA04F642EB0601A1
:100680005EEA430E08BF20EAD37070BDC4F10C04CB
:10069000C4F1200500FA04F320FA05F001FA04F28F
:1006A00040EA020001F0004110EBD37041F100017B
:1006B0005EEA430E08BF20EAD37070BDC4F1200586
:1006C00000FA05F24EEA020E20FA04F301FA05F2EE
:1006D00043EA020321FA04F001F0004121FA04F296
:1006E00020EA020000EBD3705EEA430E08BF20EA66
:1006F000D37070BD94F0000F0FD101F000464000A0
:1007000041EB010111F4801F08BF013CF7D041EA21
:10071000060195F0000F18BF704703F00046520025
:1007200043EB030313F4801F08BF013DF7D043EAF6
:100730000603704794EA0C0F0CEA135518BF95EAAC
:100740000C0F0CD050EA410618BF52EA4306D1D133
:1007500081EA030101F000414FF0000070BD50EA52
:10076000410606BF1046194652EA430619D094EADC
:100770000C0F02D150EA013613D195EA0C0F05D1C6
:1007800052EA03361CBF104619460AD181EA03011A
:1007900001F0004141F0FE4141F470014FF00000D2
:1007A00070BD41F0FE4141F4780170BD70B54FF06D
:1007B000FF0C4CF4E06C1CEA11541DBF1CEA1355ED
:1007C00094EA0C0F95EA0C0F00F0A7F8A4EB0504CF
:1007D00081EA030E52EA03354FEA013100F08880C6
:1007E0004FEA03334FF0805545EA131343EA12638F
:1007F0004FEA022245EA111545EA10654FEA002644
:100800000EF000419D4208BF964244F1FD0404F5FC
:10081000407402D25B084FEA3202B61A65EB030558
:100820005B084FEA32024FF480104FF4002CB6EB15
:10083000020E75EB030E22BFB61A754640EA0C0095
:100840005B084FEA3202B6EB020E75EB030E22BFD5
:10085000B61A754640EA5C005B084FEA3202B6EB16
:10086000020E75EB030E22BFB61A754640EA9C00D5
:100870005B084FEA3202B6EB020E75EB030E22BFA5
:10088000B61A754640EADC0055EA060E18D04FEA63
:10089000051545EA16754FEA06164FEAC30343EA03
:1008A00052734FEAC2025FEA1C1CC0D111F4801FD0
:1008B0000BD141EA00014FF000004FF0004CB6E7C9
:1008C00011F4801F04BF01430020B4F1FD0C88BF68
:1008D000BCF5E06F3FF6AFAEB5EB030C04BFB6EB73
:1008E000020C5FEA500C50F1000041EB045170BD66
:1008F0000EF0004E4EEA113114EB5C04C2BFD4EB93
:100900000C0541EA045170BD41F480114FF0000E16
:10091000013C90E645EA060E8DE60CEA135594EA92
:100920000C0F08BF95EA0C0F3FF43BAF94EA0C0F95
:100930000AD150EA01347FF434AF95EA0C0F7FF40A
:1009400025AF104619462CE795EA0C0F06D152EA5E
:1009500003353FF4FDAE1046194622E750EA410642
:1009600018BF52EA43067FF4C5AE50EA41047FF453
:100970000DAF52EA43057FF4EBAE12E74FF0FF3CB8
:1009800006E000BF4FF0010C02E000BF4FF0010C89
:100990004DF804CD4FEA410C7FEA6C5C4FEA430C02
:1009A00018BF7FEA6C5C1BD001B050EA410C0CBF51
:1009B00052EA430C91EA030F02BF90EA020F0020B3
:1009C000704710F1000F91EA030F58BF994208BF1A
:1009D00090422CBFD8176FEAE37040F001007047D7
:1009E0004FEA410C7FEA6C5C02D150EA013C07D12E
:1009F0004FEA430C7FEA6C5CD6D152EA033CD3D079
:100A00005DF8040B704700BF8446104662468C4672
:100A10001946634600E000BF01B5FFF7B7FF0028A5
:100A200048BF10F1000F01BD4DF808EDFFF7F4FFCE
:100A30000CBF012000205DF808FB00BF4DF808ED59
:100A4000FFF7EAFF34BF012000205DF808FB00BF7C
:100A50004DF808EDFFF7E0FF94BF012000205DF89E
:100A600008FB00BF4DF808EDFFF7CEFF94BF012053
:100A700000205DF808FB00BF4DF808EDFFF7C4FF4C
:100A800034BF012000205DF808FB00BF4FEA410C95
:100A90007FEA6C5C02D150EA013C0AD14FEA430C78
:100AA0007FEA6C5C02D152EA033C02D14FF00000B5
:100AB00070474FF0010070474FEA4102B2F1E04346
:100AC00024BFB3F5001CDCF1FE5C0DD901F0004C35
:100AD0004FEAC0024CEA5070B2F1004F40EB830085
:100AE00008BF20F00100704711F0804F21D113F1B1
:100AF0003872BCBF01F00040704741F480114FEAEA
:100B00005252C2F11802C2F1200C10FA0CF320FA72
:100B100002F018BF40F001004FEAC1234FEAD3238F
:100B200003FA0CFC40EA0C0023FA02F34FEA4303F9
:100B3000CCE77FEA625307D150EA01331EBF4FF082
:100B4000FE4040F44000704701F0004040F0FE409D
:100B500040F40000704700BF034613F8012B002A41
:100B6000FBD1181A01387047000000000000000097
:100B700001F0FF01102A2BDB10F0070F08D010F84E
:100B8000013B013A8B422DD010F0070F42B3F6D152
:100B9000F0B441EA012141EA014122F007047FF06B
:100BA00000070023F0E80256083C85EA010586EAC2
:100BB000010685FA47F5A3FA87F586FA47F6A5FAFE
:100BC00087F68EB9EED1F0BC01F0FF0102F007020A
:100BD00032B110F8013B013A83EA010313B1F8D1B5
:100BE0000020704701387047002D06BF3546033896
:100BF000073815F0010F07D1013015F4807F02BFCF
:100C0000013015F4C03F0130F0BC0138704700BF1F
:100C10004FEA410212F5001215D211D56FF4787324
:100C2000B3EB625212D94FEAC12343F0004343EAC7
:100C3000505311F0004F23FA02F018BF40427047A2
:100C40004FF00000704750EA013005D111F000402C
:100C500008BF6FF0004070474FF00000704700BFC2
:100C600053B94AB9002908BF00281CBF4FF0FF3113
:100C70004FF0FF3000F072B9ADF1080C6DE904CE11
:100C800000F006F8DDF804E0DDE9022304B0704767
:100C90002DE9F047089E04468846002B4BD18A4236
:100CA000154667D9B2FA82F24AB1C2F1200701FAB9
:100CB00002F320FA07F7954047EA030894404FEA09
:100CC000154E230CB8FBFEF71FFA85FC0EFB1788A8
:100CD00043EA084307FB0CF1994209D9EB1807F1E5
:100CE000FF3080F01B81994240F21881023F2B4473
:100CF0005B1AA4B2B3FBFEF00EFB103344EA0344CC
:100D000000FB0CFCA44509D92C1900F1FF3380F03D
:100D10000781A44540F2048102382C4440EA074090
:100D2000A4EB0C0400271EB1D4400023C6E9004305
:100D30003946BDE8F0878B4209D9002E00F0EB80E0
:100D40000027C6E9000138463946BDE8F087B3FA06
:100D500083F7002F47D18B4202D3824200F2FA8000
:100D6000841A61EB030301209846002EE0D0C6E907
:100D70000048DDE702B9FFDEB2FA82F2002A40F055
:100D80008F80491B4FEA154E1FFA85F80127B1FBEA
:100D9000FEFC230C0EFB1C1143EA014308FB0CF183
:100DA000994207D9EB180CF1FF3002D2994200F2B8
:100DB000CD808446591AA3B2B1FBFEF00EFB10148D
:100DC00043EA044408FB00F8A04507D92C1900F1B8
:100DD000FF3302D2A04500F2B6801846A4EB080407
:100DE00040EA0C409FE7C7F1200CBB4022FA0CFE02
:100DF0004EEA030E01FA07F420FA0CF521FA0CF37F
:100E00004FEA1E482543B3FBF8F92C0C08FB1933B5
:100E10001FFA8EFA44EA034309FB0AF49C4202FAE1
:100E200007F200FA07F10BD91EEB030309F1FF30BB
:100E300080F087809C4240F28480A9F102097344CB
:100E40001B1BADB2B3FBF8F008FB103345EA0344BB
:100E500000FB0AFAA24508D91EEB040400F1FF3397
:100E60006BD2A24569D90238744440EA0940A0FB1C
:100E70000289A4EB0A044C45C2464B4654D351D0D8
:100E8000002E69D0B1EB0A0564EB030404FA0CFCF4
:100E9000FD40FC404CEA0505C6E90054002747E741
:100EA000C2F1200320FA03F7954001FA02F021FA7B
:100EB00003F34FEA154E3843010CB3FBFEF71FFA5C
:100EC00085F80EFB173341EA034107FB08F38B4219
:100ED00004FA02F407D9691807F1FF3C2FD28B42BC
:100EE0002DD9023F2944CB1A81B2B3FBFEF00EFB91
:100EF000103341EA034100FB08F38B4207D969181C
:100F000000F1FF3C17D28B4215D902382944C91A87
:100F100040EA07473BE73746304609E70746E7E63A
:100F20001846FBE64145ABD2B8EB020A69EB0E026C
:100F300001381346A4E76046E9E7184695E7674697
:100F4000D1E781467CE702382C4447E7ACF1020C3C
:100F50002B442FE7384608E73746E9E6704700BFDD
:100F6000F1EE103A43F08073E1EE103A704700BFA3
:100F7000014B93ED000A7047440A0020014B002208
:100F80001A607047440A0020014B93ED000A704735
:100F9000400A0020064B9FED070AD3ED007AF5EEDC
:100FA000C07AF1EE10FAA8BFB0EE670A704700BF32
:100FB0003C0A0020000000009FED010A704700BFBE
:100FC00000407D44084B9FED097A1B8807EE903A5C
:100FD000F8EEE77A064B77EEC77A9FED067A67EE72
:100FE000877AC3ED007A70474A0A002000C0CC44DB
:100FF0003C0A002075F24B3C38B50F4C2080FFF7BF
:10100000E1FF0E4B1B7803F0FF009BB10C4B1A88DD
:10101000B2F5967F0ED21A8825880A4C92B224F82F
:1010200012501A88084C92B224F812101A88013211
:1010300092B21A8038BD00BF4A0A00205C0A002024
:10104000540A0020B05F0020388C002008B52A4BDD
:10105000DFED2A7A1B881BB25B422DED028B08EE76
:10106000103AB8EEC88A28EE278A00F0E7FAB5EE03
:10107000C08AF1EE10FA33D5DFED217A20EE007A46
:1010800027EEC00ADFED1F7AA7EE270ADFED1E7AF2
:1010900030EE270ADFED1D7A1D4BDFED1E6A93ED62
:1010A000007A1D4AB8EE477A68EE277A27EE267A4C
:1010B000DFED1A6A27EE088A93ED007A184BE0EE0E
:1010C000087ABDEC028BB8EE477AC2ED007A27EEC3
:1010D000267AD3ED006AE7EE876AC3ED006A08BDA1
:1010E0009FED107ADFED107AE0EE077AB0EE670A36
:1010F000DFED0E7AD0E700BF4C0A0020C1091C3C8E
:10110000A52C033FB37B723B0C028341AE47613F8A
:10111000500A0020BD378635400A002056558541CB
:10112000440A00208C4A6ABC8716D93F52B85E3FF9
:10113000074B084800221A60074B00211980074B13
:1011400001221A70018006490A701878704700BFA2
:10115000580A0020540A0020560A00205D0A002088
:101160005C0A002037B51A4B01901880194B0C46C9
:101170001960FFF76BFF184B1B7803F0FF011BB3DF
:10118000164B1A88B2F5967F1ED201981D88144A14
:1011900007EE900AF8EEE77A02EB8502C2ED007ADC
:1011A0001A88104892B207EE904A20F812400E4A70
:1011B000F8EEE77A92ED007A77EE877AC2ED007A60
:1011C0001A88013292B21A80084603B030BD00BFBF
:1011D0004C0A0020500A00205D0A0020560A002018
:1011E000005B002008620020580A0020044B0549DB
:1011F00000221A700A70187880F00100704700BF52
:101200005D0A00205C0A0020004870477C0A00202C
:10121000036810B543FA01F4E40706D52AB90122A0
:1012200002FA01F123EA0103036010BD000000008F
:1012300030B52DED088B9FED489A8DB00546F0EE48
:1012400040AAB0EE60BAF0EE419A0024B0EE498AAE
:10125000B0EE49AAF0EE498AA84702ABB4EEEA0A1A
:1012600003EB8403F1EE10FA83ED000A6ED4B4EEC2
:10127000CB0AF1EE10FA69DC07EE904A04FB04F3A6
:10128000B8EEE77A07EE903AF8EEE77A01200134FB
:1012900078EE878A3AEE27AA38EE008AA0EE079AFF
:1012A00001F0C4F90A2CD7D128EE687A68EEE87A02
:1012B000F2EE046AA9EE267A02AC0025EAEE267A5E
:1012C0009FED260A9FED249A87EE27AA9FED20BB6B
:1012D000AAEE688AF0EE408A28EE008AF4EC017AE1
:1012E00007EE105A77EEC87AB8EEC77A0135E7EE06
:1012F0004A7A17EE900AFFF7D7F8B0EE4B1AF0EEE5
:101300006B1A41EC100B07F087FC53EC102B19EE15
:10131000100ACDE90023FFF7C7F8DDE90023FEF747
:1013200065FFFFF7C9FB0A2D09EE100AD6D129EE99
:10133000280A07F0E1FDB4EEE90AF1EE10FACCBF9D
:10134000012000200DB0BDEC088B30BD0020F9E776
:10135000000000000000004000000000CDCCCC3DAB
:1013600010B52DED028B82B002AC4FF0FF33A048D8
:1013700044F8043D08F064FD002002F0D9FB01218F
:1013800002462046FFF744FF4FF47A7001F04EF911
:10139000012002F0CDFB012102462046FFF738FF75
:1013A00094489FED958A08F04BFD002002F0D8FB91
:1013B000012102462046FFF72BFF4FF47A7001F01F
:1013C00035F9012002F0CCFB012102462046FFF74F
:1013D0001FFF8A4808F034FD002002F0DAFB0121EB
:1013E00002462046FFF714FF4FF47A7001F01EF911
:1013F000012002F0CEFB012102462046FFF708FF44
:101400007F4808F01DFD002002F0E8FB02210246A3
:101410002046FFF7FDFE4FF47A7001F007F9012036
:1014200002F0DCFB022102462046FFF7F1FE754880
:1014300008F006FD002002F0C5FB09210246204607
:10144000FFF7E6FE4FF47A7001F0F0F8012002F0A9
:10145000B9FB0A2102462046FFF7DAFE6A4808F087
:10146000EFFC002002F0C8FB092102462046FFF7EE
:10147000CFFE4FF47A7001F0D9F8012002F0BCFBE6
:101480000A2102462046FFF7C3FE02F0CFFA0521EB
:1014900002462046FFF7BCFE02F02EFB0B2102465F
:1014A0002046FFF7B5FEF0EE480AB0EE001A9FEDB9
:1014B000570A5748FFF7BCFE052102462046FFF7B2
:1014C000A7FEFFF761FD10EE100AFEF7EDFF0B46D9
:1014D0000246504808F0B4FCF0EE480AB0EE001A9C
:1014E000BBEE040A4C48FFF7A3FE06210246204645
:1014F000FFF78EFEFFF74EFD10EE100AFEF7D4FF49
:101500000B460246454808F09BFCB0EE001ADFEDA2
:10151000440A9FED440A4448FFF78AFE0721024629
:101520002046FFF775FEFFF747FD10EE100AFEF7A5
:10153000BBFF0B4602463D4808F082FC02F068FB08
:10154000032102462046FFF763FE02F063FB0321FE
:1015500002462046FFF75CFE02F092F804210246A4
:101560002046FFF755FEFFF70FFD10EE100AFEF7BD
:101570009BFF0B4602462E4808F062FC01F0FCFF80
:10158000042102462046FFF743FE40F6B83001F042
:101590004DF801F0DDFF042102462046FFF738FE3A
:1015A000FFF7F2FC10EE100AFEF77EFF0B46024634
:1015B000204808F045FC02F037FB03210246204694
:1015C000FFF726FEFFF7E0FC10EE100AFEF76CFFB7
:1015D00002460B46184808F033FC01F0CDFF40F6F8
:1015E000B83001F023F8019802B0BDEC028B10BDB9
:1015F0002EEA00083AEA00080000C84249EA00085A
:1016000056EA000861EA00086FEA00080000C8C254
:10161000890F00087CEA0008950F000896EA000888
:101620000080894400006144B90F0008B0EA000856
:10163000CAEA0008E4EA0008FEEA0008014B93ED5C
:10164000000A7047680A002010B5344C23782070D7
:1016500000F0DAFF324B18602378002B34D1314A86
:1016600000231360304A1360FFF788FCFFF760FD2A
:1016700002F0DAFA2D4B198839B12D4801F0A4FF98
:1016800000F0C2FF2B4B186010BD00F009FADFED2F
:101690002A7A2A4B87EE800AD3ED007A20EE270AB9
:1016A000BCEEC00A10EE103A9CB200F0EFF9F1EE79
:1016B000087A20EE270A2046BCEEC00A10EE103A47
:1016C00099B201F0ADFFDBE72378012B0DD1FFF7D5
:1016D0008DFDFFF74DFC1A4BC82083ED000A00F08A
:1016E000A5FFBDE8104001F047BF2378022B0ED1C3
:1016F000FFF77CFD02F08EFAC82000F097FF01F0A2
:101700003BFF104A002313600F4A1360BCE72378A5
:10171000032BB9D102F088FAE3E700BF08000020EC
:10172000D80A0020780A0020680A0020480A002011
:1017300010690020D40A00200000704218EB000855
:10174000740A00206C0A0020000000202DE9F843F4
:101750002DED068B00F090F9B0EE409A00F096F96E
:1017600000F09EF900F068FA00F090F9B0EE40AA9F
:1017700000F096F9F0EE408A00F09CF9F0EE409A05
:1017800000F07AF99FED8E8AF7EE007A79EEA77A6B
:1017900088EE000A89EEA77ADFED8A7A68EEA78ADA
:1017A000BCEEC00ACAEE287AB8EE400AFCEEE77A30
:1017B00020EE070A17EE904ABCEEC00A10EE103A6F
:1017C00023441C4600F058F988EE000AFCEEC07A6B
:1017D00017EE905AAC4205D97B4B7C4A7C484A2193
:1017E00008F0BCFA00F032FADFF82092074600F069
:1017F00033FAD9F80030064603F1190800F004FF67
:10180000804515D8FFF7B4FBF0EE409AFFF7C2FB16
:10181000F0EE408AFFF7B8FBB0EE691AF0EE400A2E
:10182000B0EE680A00F058FA00F0EEFEC9F80000C9
:10183000684B1A78042A04D1674800F0A5FB002001
:1018400020E01A7822BBFFF793FB644B644C83EDD6
:10185000000AFFF79FFBD4ED007AB4EEE70AF1EE41
:1018600010FA03DBFFF796FBF0EE407AC4ED007A46
:1018700000F0CAFE5B4B1B6803F548739842C0F04A
:101880009B800120BDEC068BBDE8F843FFF7DCBE72
:101890001A78012A21D1FFF76BFB504B524E83ED92
:1018A000000AFFF777FBD6ED007AB4EEE70AF1EE17
:1018B00010FA03D8FFF76EFBF0EE407A4B4BC6ED03
:1018C000007A2C1B1D6800F09FFEBC422CBF2C1917
:1018D000EC19844270D80220D4E71A78022A55D134
:1018E000FFF752FB424D434F85ED000AFFF752FBD5
:1018F00087ED000A0EB10320C4E7C8EE097ADFF8CD
:10190000E480D8F80040FCEEE77A17EE903A2344E2
:101910001C4600F079FE84424ED800F075FE044665
:10192000FFF726FB344BD8F8000093ED001A334B39
:1019300097ED003AD5ED001A31EE401A83ED001A0A
:101940002A4B1B68E21A1B1A07EE102A07EE903A80
:10195000B8EE477AF8EE677A241A87EE270A284B02
:1019600007EE904A9FED277A83ED000AF8EE677A3A
:10197000254BC7EE270AC3ED000A1B4BD3ED002A07
:10198000174B93ED002A00F019FA58E71B78032B48
:1019900012D1FFF7F9FA164DDFF8488085ED000AFD
:1019A000FFF7F8FA134FD8F8003087ED000A1E440D
:1019B00000F02AFE8642AFE7BDEC068BBDE8F88357
:1019C00000606A478988883CE5E90008D0E900089A
:1019D000F4E90008080000207C0A0020780A0020B2
:1019E000680A0020D40A002004000020D80A002041
:1019F0006C0A002000000020740A0020700A0020F9
:101A0000600A0020FE5F6A47640A0020D00A0020B6
:101A1000154B1B8806EE903A144B1B8807EE103AC4
:101A2000134B1B88F8EE477A07EE103AB8EE477A68
:101A3000F8EE666A27EE877ADFED0E7A27EE277AD0
:101A4000C6EE877AB7EE007A77EEC77AB2EE047AFE
:101A500067EE877AFCEEE77A17EE903A9BB29842EF
:101A600028BF1846704700BF1E0000200C00002051
:101A7000180000206F12833A034B1B8800EE103AC7
:101A8000B8EE400A704700BF0C000020034B1B88D3
:101A900000EE103AB8EE400A704700BF1800002070
:101AA000034B1B8800EE103AB8EE400A704700BFA7
:101AB0001E000020054BDFED067A1B8800EE103A71
:101AC000B8EEC00A20EE270A704700BF0A000020C7
:101AD000CDCCCC3D08B5FFF7EDFF0E4B9FED0E7A58
:101AE0001B8806EE903A0D4B1B8807EE903AF8EEF5
:101AF000677AF8EE666A67EE877A40EE277A86EEB6
:101B0000A77AFCEEC77A17EE903A9BB2984228BFAC
:101B1000184608BD1E0000206F12833A18000020EE
:101B200008B5FFF7C7FF0D4BDFED0D6A1B8807EE09
:101B3000103AB8EE477AC6EE877AB7EE007A30EE02
:101B4000077AFCEEE77A80EE070AF8EE677A67EE2E
:101B5000807AFCEEE77A17EE900A08BD0C000020B0
:101B600000606A4708B5FFF7DBFF0C4BDFED0C6A3E
:101B70001B8807EE103AB8EE477AC6EE877AFCEE7D
:101B8000E77A17EE903A984205D9064B064A07487D
:101B9000402108F0E3F8181A08BD00BF0C0000202F
:101BA00000606A47E5E90008A6EB0008F4E90008D0
:101BB00010B50446FFF7D6FF0C4B9FED0D7A1B883E
:101BC00007EE903AF8EE677A67EE877A07EE100A2A
:101BD000B8EE477A67EE877AFCEEE77A17EE903A2E
:101BE00098B2A04228BF204610BD00BF1E000020B2
:101BF0008988883C10B50446FFF7B4FF0C4BDFED35
:101C00000D7A1B8807EE103AB8EE477A27EE277A4E
:101C100007EE900AF8EE676AC7EE267AFCEEE77ADE
:101C200017EE903A98B2A04238BF204610BD00BFD0
:101C30001800002000007042034B1B8800EE103A91
:101C4000B8EE400A704700BF12000020014B186830
:101C5000704700BFF40B0020014B1868704700BFAD
:101C6000F00B002010B50446FEF776FF224603383D
:101C70000023111B884201D8D8B210BD12F8011BF5
:101C80000B44F6E7F8B50746084614461E4608F02A
:101C900060F82E210546384608F0E4F828B10A49D4
:101CA0000219131A002B06DCF8BD084B084A094834
:101CB000832108F053F895FBF6F306FB13554C5DB2
:101CC00002F8014D1D46ECE7ECEB0008FDEB0008C7
:101CD000D1EB000802EC000810B53B222DED048B7F
:101CE00033493448F0EE608AB0EE419AB0EE408A53
:101CF00008F0D7F800F088FC2F49B0FBF1F40A2374
:101D000004FB110106222B48FFF7BCFFB0EE490A85
:101D100006F05CFFFDEEC07A042217EE901A0A234B
:101D20002448FFF7AFFF2E21224808F09BF8FDEE74
:101D3000E87AB0EE680A17EE903A002BB4BF2D2374
:101D40002B23037006F042FFFDEEC07A032217EE4C
:101D5000901A0A231748FFF795FF2E21154808F01F
:101D600081F8FDEEC87AB0EE480A17EE903A002BE3
:101D7000B4BF2D232B23037006F028FFFDEEC07A9D
:101D80000A2317EE901A03220A48FFF77BFF09483F
:101D9000FFF768FF1023014602220648FFF772FF93
:101DA000BDEC048B0348BDE8104001F0B3BB00BF9D
:101DB0001CEB0008DC0A002040420F0008B54E2250
:101DC0002DED088B45494648B0EE618AF0EE60AAD9
:101DD000B0EE41AAF0EE429AB0EE629AF0EE438A7B
:101DE000B0EE40BA08F05DF8B2EE040A2BEE000A3D
:101DF00006F0ECFEFDEEC07A0A2317EE901A0222DE
:101E00003748FFF73FFFB0EE6A0A06F0DFFEFDEE4F
:101E1000C07A0A2317EE901A02223148FFF732FFE8
:101E2000B0EE4A0A06F0D2FEFDEEC07A0A2317EEA3
:101E3000901A03222A48FFF725FFB0EE690A06F040
:101E4000C5FEFDEEC07A022217EE901A0A2324483E
:101E5000FFF718FF2E21224808F004F8FDEEC87A9B
:101E6000B0EE480A17EE903A002BB4BF2D232B2377
:101E7000037006F0ABFEFDEEC07A0A2317EE901A4F
:101E800002221748FFF7FEFEB0EE490A06F09EFE5A
:101E9000FDEEC07A0A2317EE901A02221048FFF7CF
:101EA000F1FEB0EE680A06F091FEFDEEC07A0A235C
:101EB00017EE901A02220A48FFF7E4FE0848FFF7DF
:101EC000D1FE1023014602220548FFF7DBFEBDECE0
:101ED000088B0348BDE8084001F01CBB58EB000824
:101EE000800B002004292DE9F04180460E4617465C
:101EF0003DDCFEF731FE062839D105221D491E487A
:101F000007F0CFFF1C490023721D2E2093422ADDCB
:101F10001A4C1B49B51D25440522284607F0C1FF70
:101F200003221849681D07F0BCFF00232B722E21E5
:101F3000601F07F097FF4146062207F06DFF32460B
:101F400039460A23601FFFF79DFE601FFFF78AFED8
:101F5000102301460222601FFFF794FE601FBDE8B8
:101F6000F04101F0D7BACC1801336071CEE7002000
:101F7000BDE8F0818FEC0008D00B0020D50B0020CD
:101F800095EC000833ED000870B505220546594967
:101F900059485A4C07F085FF2846FEF7DDFD2946D3
:101FA0000246204607F038FF2846FEF7D5FD2518E3
:101FB00005225349284607F074FF03225149681D42
:101FC00007F06FFF00232B72601FFFF74BFE1023FB
:101FD00001460222601FFFF755FE601F01F09AFACA
:101FE00018B9002000F0010070BD474E4748328804
:101FF0000321FFF777FF0028F3D0454C454822889E
:102000000221FFF76FFF0028EBD0434B43481A88AB
:102010000221FFF767FF0028E3D0414D41482A889D
:102020000221FFF75FFF0028DBD03F4B3F481A88B3
:102030000221FFF757FF0028D3D0FFF771FD338847
:10204000DFED3B7A06EE903A2B8807EE103AB8EEB9
:10205000477AF8EE666A27EE277AC6EE877ADFEDD2
:10206000356AFCEEE77A17EE903A03441846238867
:1020700007EE103AB8EE477AC6EE877AFCEEE77ABA
:1020800017EE902A904205D92B4B2C4A2C484A2116
:1020900007F064FE121A04212A48FFF723FF0028E4
:1020A0009FD0294B29481A880421FFF71BFF0028DD
:1020B00097D0274B27481A880421FFF713FF0028E1
:1020C0008FD0254B25481A880321FFF70BFF0028E6
:1020D00087D0234B23481A880321FFF703FF0028EA
:1020E0003FF47FAF204B21481A880421FFF7FAFE06
:1020F00078E700BF3CEC0008180B00201D0B002007
:1021000095EC000833ED00081800002042EC0008B0
:102110000C00002049EC00081000002050EC0008E2
:102120001E00002057EC00080A0000205EEC0008AA
:102130008988883C00606A47E5E90008BCEB000834
:10214000F4E9000865EC00081C0000206CEC0008B5
:102150001A00002073EC0008120000207AEC00083E
:102160001400002081EC00081600002088EC000814
:102170002DE9F04704688246104615468846994680
:10218000DDE90867FEF7E8FC29460246204607F02D
:1021900076FE0446E8B92846FEF7DEFCDAF80030A1
:1021A0001844CAF8000007F0F7FD80B207B1B8473D
:1021B0003080024649462846FFF794FE28B1318810
:1021C0001FFA88F001F03AFD044604F00100BDE872
:1021D000F0870020FBE770B5044608460E46FEF780
:1021E000BBFC314605460246204607F048FE08B9CA
:1021F000601970BD0020FCE72DE9FF41A04CA14E05
:1022000025462378012B23D02B78022B06D19E491B
:102210009E4807F05BFE044668BB28702C78002CB3
:102220003FD10123994A2B702346A3540134652CD6
:10223000FBD1944A136004B0BDE8F0811F2804DC90
:1022400009280DD000232B700AE07E28FADC07E075
:1022500001F06CF9431CD7D00A28EFD10223237078
:102260003368642BD7BF894A0023D0540133CCBFD5
:102270002B703360C5E710220021053007F0BCFE4B
:1022800006468248FFF7EEFCB04218BF00237E48A6
:1022900018BF2B70FEF760FC2044002300F8013CBF
:1022A000BCE7022CC7D17A497848784EDFF86882BB
:1022B000FFF791FF0746039010B998F8003083B9F3
:1022C000FEF7A2FFFFF760FE88F8000001232B70E5
:1022D00000231A46F2540133652BFBD1694B1A6077
:1022E000A9E76C493046FFF776FF80460390002847
:1022F00000F08C80684B0193684B0093684A03237D
:10230000394603A8FFF734FF0028DFD1654B01935E
:10231000654B0093654A2346012103A8FFF728FF78
:102320000028D3D1624B0193624B0093624A23464B
:10233000214603A8FFF71CFF0028C7D15F4B01937C
:102340005F4B00935F4A2346032103A8FFF710FF6A
:102350000028BBD15C4B019000935C4A23460421CA
:1023600003A8FFF705FF0028B0D1002301930DF16A
:102370000A030093564A04234FF0FF3103A8FFF7E6
:10238000F7FE0028A2D1534B01900093524A042338
:10239000052103A8FFF7ECFE002897D14F4B0190D1
:1023A00000934F4A0423062103A8FFF7E1FE00280B
:1023B0008CD14C4B019000934B4A0323072103A877
:1023C000FFF7D6FE002881D1484B01900093484A80
:1023D0000323082103A8FFF7CBFE00287FF476AF84
:1023E000444B01900093444A0223092103A8FFF7BC
:1023F000BFFE00287FF46AAF404B01900093404A33
:1024000004230A2103A8FFF7B3FE5FE73D493046E6
:10241000FFF7E1FE07460390A8B10DF10A03009310
:10242000394ACDF8048005234FF0FF3103A8ADF8F9
:102430000A80FFF79DFE00F0E7F8BDF80A30184467
:10244000324B186042E732493046FFF7C4FE04467B
:102450000390002862D00DF10A0300932A4A0197E5
:1024600005234FF0FF3103A8ADF80A70FFF780FE97
:1024700000F0CAF8BDF80A301844264BE1E700BF67
:1024800020000020640C002095EC0008FC0B0020CC
:102490003CEC00088FEC0008B11B0008180000207D
:1024A00042EC0008D51A00080C00002049EC000896
:1024B000F51B00081E00002057EC0008111A000848
:1024C0000A0000205EEC00081000002050EC00081C
:1024D00065EC00081C0000206CEC00081A000020CD
:1024E00073EC0008120000207AEC000814000020B1
:1024F00081EC00080E0000209BEC00081600002074
:1025000088EC0008A2EC000836ED0008F40B00206F
:10251000A8EC0008F00B002009000020124930460A
:10252000FFF759FE039098B10DF10A0300930F4A8B
:10253000019405234FF0FF3103A8ADF80A40FFF7DF
:1025400017FE00F061F8BDF80A301844084B78E730
:1025500008493046FFF73FFE00283FF4B7AE064B70
:1025600001221A70B2E600BFAEEC000836ED00089A
:10257000EC0B0020B4EC0008F80B002007EE900AEA
:1025800010B541F29414A142B8EEE77A9FED1C6AAF
:10259000DFED1C5A28BF21460023F2EE006A994263
:1025A0001BD907EE903AF8EEE77AB0EE655AA7EE3F
:1025B000E65AB4EEC75AF0EE457AF1EE10FAB8BF1B
:1025C000F0EE477AFCEEE77A17EE900A22F8130055
:1025D0000133A342E3D1084610BD581A07EE900A12
:1025E000F8EE677AB0EE475AA7EEA65AB4EEC65A8E
:1025F000F0EE457AF1EE10FA88BFF0EE467AE1E7A8
:1026000000FF7F470000C84306F0BCBA10B504467F
:1026100002F08EFC30B1204602F064FBBDE81040B1
:1026200006F0B0BA204606F0B3FAF7E713B5044651
:1026300002F07EFC60B102F003FA02AB214643F8DF
:10264000040D184602F006FB06F09CFA02B010BD1D
:10265000204606F09DFAF7E738B5054602F0F0F996
:102660002B696A681344984211D902F0E9F9D5E957
:1026700004342344C31AB3FBF4F402F0E1F92861F3
:1026800005F11000696802F0E5FA204638BD002423
:10269000F6E7000008B5436843618168024807F027
:1026A000CFFB002008BD00BFBAEC000810B50446FF
:1026B000FFF7F0FF2046FFF7CFFFFFF79DFDF9E79B
:1026C00010B50446FFF7E6FF2046FFF7C5FFFFF70A
:1026D0003DF8F9E7F7B500F0C5FC002211460120EE
:1026E00000F010FFFEF73CFE00250E4C0E4E2F466C
:1026F0003368AB4204D802F057F9002003B0F0BDB4
:10270000E3680093A168019723464FF4807254F860
:10271000180B02F01CF9012801D10135E8E74FF050
:10272000FF30EBE7280000202400002010B5014610
:1027300088B00022192002F0CDFF192002F0FEFF20
:10274000144B154C9A6942F400329A619B6903F468
:102750000033029301A903A8029B04F085FF04F053
:102760006BFF0E4B236040F2E733E3600C4BB0FB92
:10277000F3F001380023606020462361A36005F078
:10278000E7FD20B9204605F0CDF908B010BD0120C5
:10279000FBE700BF00100240908E00200044014083
:1027A00040420F000D4B9A6942F001029A619A690A
:1027B00082B002F001020092009ADA6942F080527F
:1027C000DA61DB6903F080530193019B00220F2142
:1027D0006FF0010002B002F07DBF00BF00100240A8
:1027E00030B5054689B01422002103A807F01FFB6D
:1027F0002A68304B9A425AD12F4C636943F48023A4
:102800006361636903F480230193019B4FF440717A
:102810001223CDE9031301200323CDE9050303A906
:1028200004232648079303F089F8E369DFF89CC086
:1028300043F40013E361E369214C03F400130293B2
:10284000029B802200232046C4E900C3A360C4E9A0
:102850000323C4E90533E36102F0A0FF08B100F0EF
:1028600068FC184AEC636562174C0023C4E9002336
:1028700020468022A360C4E90323C4E90533E36151
:1028800002F08CFF08B100F054FC002205211F204B
:10289000AC63656202F01EFF1F2002F04FFF202094
:1028A0000022052102F016FF202002F047FF09B0A8
:1028B00030BD00BF0054004000100240000400483A
:1028C000A49100206C000240F08F002080000240A4
:1028D00030B50368B3F1804F85B0054630D103F5BC
:1028E0000433354CDA69354842F00102DA61DB69BC
:1028F00003F001030193019B1023C4E9000380222C
:102900000023C4E902324FF4007C4FF48062A361DB
:1029100020464FF40053C4E904C2E36102F03EFFD5
:1029200008B100F006FC05222C621C2011466562ED
:1029300002F0D0FE1C2005B0BDE8304002F0FEBE23
:102940001F4A934229D11F4B1F4CDA6942F0020201
:10295000DA61DB691D4A03F002030293029B002344
:10296000C4E9002380214FF48072C4E90312204699
:102970004FF48062A360C4E90523E36102F00EFF17
:1029800008B100F0D6FB65621D202C632C6200228A
:10299000052102F09FFE1D20CDE70D4A934209D18B
:1029A000084BDA6942F00402DA61DB6903F00403E0
:1029B0000393039B05B030BDB09000201C00024083
:1029C0000004004000100240E89100203000024066
:1029D0000008004010B5044688B01422002103A866
:1029E00007F025FA2368B3F1804F18D103F50433BB
:1029F0004FF400415A6942F400325A615B6903F4B2
:102A000000330193019B0223CDE9031301230793B4
:102A100003A94FF0904002F091FF08B010BD0B4A9F
:102A20009342FAD10A4B0B485A6942F400225A6188
:102A30005B6903F400230293029B4FF400720223AC
:102A4000CDE90323079303A9E5E700BF0004004095
:102A500000100240000800487047000008B500223E
:102A60004FF48071014803F03FF8FEE7000800488A
:102A7000FEE708B5FFF7F2FF08B5FFF7EFFF704775
:102A8000022003F037B8042003F034B8082003F024
:102A900031B8102003F02EB8014802F007BF00BF84
:102AA000B0900020014802F001BF00BFE891002073
:102AB000014802F0FBBE00BFA4910020014802F0D3
:102AC000F5BE00BFF08F002008B5202003F012F8FB
:102AD0008020BDE8084003F00DB80000014805F073
:102AE00037B800BFAC920020014805F031B800BFF4
:102AF000F4900020014804F095B800BF3490002005
:102B0000014804F096B800BF3490002008B54FF497
:102B1000806002F0EFFF4FF4006002F0EBFF4FF433
:102B2000805002F0E7FF4FF40050BDE8084002F08B
:102B3000E1BF0000014805F00BB800BF908E0020F7
:102B400010B5A6B02422002107A807F070F91422BE
:102B5000002101A807F06BF95822002110A807F006
:102B600066F9102301220224CDE909234FF4004124
:102B70004FF4E01306A806940C94CDE90D1304F06D
:102B8000CFF910B1002026B010BD0F23CDE90134DC
:102B90004FF480630390CDE90430214601A804F08E
:102BA00087FC0028EED1064B13901790CDE91E004C
:102BB00010A8109304F070F8B0FA80F04009E2E732
:102BC0002200300010B5114A114C40F20B23C4E929
:102BD0000023204600230122C4E90232C4E9043361
:102BE000C4E90633236203F0A1FD014608B10020C9
:102BF00010BD204602F08AFF01460028F7D120468A
:102C000002F0AAFFB0FA80F04009F1E7005400405A
:102C10003490002030B58FB01022002103A807F0B7
:102C200006F900251C22234C02950DEB02002946D3
:102C3000CDE9005507F0FBF84FF0804323601E4BB1
:102C40001E4A1B68B3FBF2F32046013BC4E9013581
:102C5000C4E90355A56105F07BFB10B100200FB05E
:102C600030BD4FF4805303A92046039305F010FABA
:102C70000028F3D1204605F08FFB0028EED100900C
:102C800002906946204604F01BFD02460028E5D16B
:102C900060210523CDE9071309900B9007A9204671
:102CA00005F066F90028D9D12046FFF793FE0120F0
:102CB000D5E700BFAC9200206400002040420F0026
:102CC00030B58FB01022002103A807F0B0F800251E
:102CD0001C22224C02950DEB02002946CDE900553D
:102CE00007F0A5F81E4B23601E4B1F4A1B68B3FB61
:102CF000F2F32046013BC4E90135C4E90355A5615F
:102D000005F026FB10B100200FB030BD4FF480530A
:102D100003A92046039305F0BBF90028F3D1204610
:102D200005F03AFB0028EED100900290694620465B
:102D300004F0C6FC0028E6D160220A23CDE907236F
:102D400009900B900C2207A9204605F011F90028E4
:102D5000D9D12046FFF73EFE0120D5E7F4900020B0
:102D6000000400406400002040420F0030B51022F3
:102D700089B000210DEB020007F059F8104C114A00
:102D800047230025C4E9002320464FF6FF73C4E91A
:102D90000335CDE901550395A560A56105F0D8FA85
:102DA0004FF4805304A92046049305F071F901A95A
:102DB00020460195039504F083FC012009B030BD45
:102DC000408F0020000800400B480C4A08B54FF423
:102DD000E133C0E9002300230C22C0E90233036180
:102DE000C0E90523C0E90733436205F07FFEB0FA6E
:102DF00080F0400908BD00BF2C920020004C00402C
:102E0000134B07B55A6942F001025A615B6903F03E
:102E100001030193002205210C20019B02F05AFCC2
:102E20000C2002F08BFC002205210D2002F052FC48
:102E30000D2002F083FC00220521112002F04AFC43
:102E4000112002F07BFC012003B05DF804FB00BF01
:102E5000001002402DE9F04F4FF014088DB04246AB
:102E6000002107A806F0E3FF774B784E5A69784FA8
:102E7000DFF8E891DFF8E8A142F400225A615A69CC
:102E800002F400220292029A5A6942F480025A61C4
:102E90005A6902F480020392039A5A6942F400329A
:102EA0005A615A6902F400320492049A5A6942F44F
:102EB00080225A615A6902F480220592059A5A6961
:102EC00042F480125A615B6903F480130693304622
:102ED000002241F2E111069B02F006FE00224FF4AF
:102EE0007C714FF0904002F0FFFD3846002246F61C
:102EF000054102F0F9FD48460022042102F0F4FDEC
:102F0000544B00244FF4005207A93046CDE9072363
:102F10000125099402F012FD41F2E11307A93046A0
:102F2000CDE907354FF0020BCDE9094402F006FD6B
:102F3000494B089307A930460193CDF81C80CDF882
:102F400024B04FF0080802F0F9FC07A93046CDE99B
:102F5000078A099402F0F2FC4FF47C7207A94FF043
:102F60009040CDE90725CDE9094402F0E7FC46F69B
:102F7000054207A93846CDE90725CDE9094402F005
:102F8000DDFC019BA22207A938460792CDE9083B48
:102F900002F0D4FC4FF4004307A93846CDE90734CA
:102FA000099402F0CBFC4FF4C05307A94FF09040B6
:102FB000CDE9073A099402F0C1FC4FF4806307A9F8
:102FC0004FF09040CDE90734099402F0B7FC042398
:102FD00007A94846CDE90735CDE9094402F0AEFC22
:102FE00022460521072002F075FB072002F0A6FB10
:102FF00022460521404602F06DFB404602F09EFB52
:1030000022460521092002F065FB092002F096FB0B
:10301000224605210A2002F05DFB0A2002F08EFB09
:1030200022460521172002F055FB172002F086FBEF
:1030300022460521282002F04DFB282002F07EFBCD
:1030400028460DB0BDE8F08F00100240000800488F
:10305000000400480000211000001110000C00487E
:103060000000311008B505F06FFDFFF769FD08B9E4
:10307000002008BDFFF7EEFE0028F9D0FFF7C0FEE4
:103080000028F5D0FFF7A0FE0028F1D0FFF79AFD49
:103090000028EDD0FFF7BEFD0028E9D0FFF710FEB5
:1030A0000028E5D0FFF762FEE3E700000268034B6B
:1030B0009A4201D105F05ABD704700BF004401405B
:1030C0007047704770477047202808B52BD00CD840
:1030D00004282BD002D8022822D008BD08281CD0F2
:1030E0001028FAD1FFF7ECFFF7E7B0F5806F11D0A9
:1030F00004D88028F1D1FFF7E6FFEEE7B0F5006FC6
:1031000005D0B0F5805FE8D100F068FBE5E700F09E
:103110003BFBE2E700F08CFBDFE700F0BFFBDCE706
:1031200000F0E0FBD9E7FFF7CCFFD6E7FFF7CAFFD7
:10313000D3E77047F8B51F4CD4F810310BB9012014
:10314000F8BD204605F0FAFA2128F8D0204605F00F
:10315000F5FA2328F3D0D4F81001D4F8083182B25C
:10316000B2F5007F4FF0000128BF4FF400720D460A
:1031700040F6FF778EB2B2420ED8801A1DB1C4F865
:103180000831C4F810010C49A1F5A95005F038F92F
:10319000B0FA80F04009D3E7E518BB4295F8146116
:1031A00001F5A95518BF0133665508BF0023013149
:1031B0000125DFE7680C0020882100202949CB6E1B
:1031C0001B68F0B55C68A4B272B6012805D1B4F5ED
:1031D000007F02D162B60120F0BD234D2B88B3F5EC
:1031E000007F35D2C3F50072012892B233D11B1B88
:1031F0009BB22C8041F21C1441F218100C59085853
:103200000025161B134440F2FF37321992B29A423E
:103210000DDB002DDED041F21813C85041F21C1313
:10322000CC50D7E7C4F500739BB20022E1E7C2F3AC
:1032300008020A440D1802F5B95205F58955B8423D
:1032400012782A7014BF0130002001340125DCE718
:103250000128E7D00022C2F500734FF400709BB242
:103260002880C7E7680C002058000020024B8342EA
:1032700001D1FFF75FBF7047680C0020034B83420A
:1032800002D10220FFF79ABF704700BF680C0020F0
:10329000704700002DE9F04141F21C13134C064623
:1032A000E05860B172B6124F3546BE46A7F1080C21
:1032B00040F2FF383A68AB1B98B212B962B6BDE86B
:1032C000F0818142FAD9DCF80030434518BF581C20
:1032D000234403F5895308BF0020013A1B78CCF83A
:1032E0000000CEF8002005F8013BE3E7680C002061
:1032F000841D0020F8B572B6144D441E661840F6C1
:10330000FF77B44205D1FFF715FF01281BD162B644
:10331000F8BDD5F80C3114F8011FBB4205EB0302D0
:1033200014BF01330023C5F80C31D5F8103182F8F1
:1033300014110133B3F5805FC5F81031E1D10A20D3
:10334000FFF764F9DDE70020E2E700BF680C00202A
:10335000F0B541F21413564C0025E55041F2181314
:10336000C4F80851E55041F21C13C4F80C51E55063
:10337000504BC4F81051DA6942F40022DA61DA697C
:1033800089B002F400220092009A5A6942F40022A5
:103390005A615A6902F400220192019A5A6942F074
:1033A00002025A615B6903F002030293029B4FF42D
:1033B00040600223CDE9030305263F48079603A991
:1033C000CDE9055502F0BAFA3C4B236003F5DC3336
:1033D00058338027C4F880301023C4E92135C4E96C
:1033E0002375C4E92555C4F89C50E519284602F018
:1033F000D5F910B1002009B0F0BD314BA566C4E984
:10340000313020214FF4005304F1C405C4E93307DF
:10341000C4E93500C4F8A440C4E93713284602F0D3
:10342000BDF90028E6D14FF4E13363600C23A060BE
:10343000C4E90530C4E907006062E566C4F8E84005
:10344000204605F053FB0028D4D123685A6842F483
:1034500000025A605A6902F07F4242F01E025A612D
:103460001A6842F080621A6004F5B95120464FF4A0
:10347000007205F00BF804460028BBD10246314625
:103480003A2002F027F93A2002F058F92246314654
:103490003C2002F01FF93C2002F050F92246314650
:1034A000342002F017F9342002F048F90120A2E795
:1034B000680C00200010024000080048004C00404A
:1034C0003004024008B5084B1B68DA69120505D5BF
:1034D0004FF400621A620120FFF770FE0248BDE857
:1034E000084005F07FB800BF680C0020014802F0DA
:1034F000DDB900BFE80C0020014802F0D7B900BFD9
:103500002C0D002008B50020FFF722FF003018BF67
:10351000012008BD10B50446FDF71EFB81B2204610
:10352000FFF7E8FE003018BF012010BD07B502A864
:10353000002300F8013D0121FFF7ACFE0028CCBFBD
:103540009DF807004FF0FF3003B05DF804FB00006A
:1035500010B5074C0021206804F072FE002120689D
:1035600004F01EFC034B00221A70012010BD00BFA6
:1035700090250020942500200E4B1B7810B503F0F9
:10358000FF04A3B9FFF7E4FF01224FF480510A487A
:1035900002F0AAFA094A01231370094A1370094B71
:1035A00018680368C822DA62214604F047FE012049
:1035B00010BD00BF89250020000800489425002088
:1035C0008A2500209025002073B50D460446FFF79C
:1035D000BFFFE5B10F4E104800224FF4805102F0BA
:1035E00083FA0E4B306801221A70036834F8022BFC
:1035F000DA62002104F022FE013D002300930195D0
:1036000023464FF480720B21306804F05DFB0120EB
:1036100002B070BD902500200008004894250020CD
:1036200070B5064C22460E46FEF7A8FF3146054609
:103630002046FFF7C9FF284670BD00BF1069002073
:10364000FFF786BF0A4B1A780A4B10B562B10A4AD7
:1036500012784AB10122094C1A7023781BB1FFF786
:1036600077FF0023237010BD00221A70FBE700BF14
:103670008B250020892500208C2500208A2500200C
:103680002DE9F041354C2368002B64D1344B354A89
:103690009A674FF480614FF09040236002F01EFA69
:1036A000314B324E324D334FDFF8D880003018BFE7
:1036B000012018704FF400614FF0904002F00EFAB4
:1036C000B0FA80F040094FF4805130704FF09040D4
:1036D00002F004FAB0FA80F040092870FFF7B2FF58
:1036E00001220421244802F0FFF933780BB92B782A
:1036F000E3B100224FF48051204802F0F5F9206830
:1037000003684FF4C872DA62002101233B7088F825
:10371000001004F093FD3378002BFCD12B78002BA4
:10372000F9D1C82005F034FAFFF712FF01224FF457
:103730008051124888F800203A7002F0D5F92068CC
:1037400003684FF4C872DA62002104F077FD0C4A76
:103750001378002BFCD00120BDE8F08190250020DB
:10376000AC92002041360008882500208B250020DF
:103770008C25002094250020000C004800080048FB
:10378000892500208A25002038B5114C05F0FAF96A
:103790002268821A192A054617D94FF400614FF0A2
:1037A000904002F09BF90B4BB0FA80F04009187082
:1037B0004FF480514FF0904002F090F9064BB0FA70
:1037C00080F040091870FFF73DFF256038BD00BF4D
:1037D000982500208B2500208C25002038B5114C21
:1037E00005F0D0F92268821A192A054617D94FF434
:1037F00080514FF0904002F071F90B4BB0FA80F01D
:10380000400918704FF400614FF0904002F066F9E3
:10381000064BB0FA80F040091870FFF713FF2560DF
:1038200038BD00BF9C2500208C2500208B25002062
:1038300038B50A4C05F0A6F92268821A322A0546E4
:103840000AD94FF480614FF0904002F047F9044BE1
:10385000003018BF01201870256038BDA025002059
:1038600088250020094B186810B5002460B104F0C9
:1038700041F9074B07481C70074B01224FF4806148
:103880001C6002F031F9012010BD00BFA825002006
:10389000A525002000040048AC25002038B50D4CBB
:1038A00005F070F92268821A142A05460FD90821FA
:1038B000094802F013F9094BB0FA80F0400918707A
:1038C0001B7823B1064B1B780BB1FFF7CBFF2560AC
:1038D00038BD00BFB025002000080048A425002006
:1038E000A525002070470000044A054803231370F3
:1038F0008021044A006803F001B900BF5C930020F6
:10390000B4250020BD250020044B054804221A7070
:10391000D0210223034A006803F0F0B85C93002032
:10392000B4250020B825002070B5394D2B78013B17
:103930000446032B11D8DFE803F00E2F410203F0F9
:10394000A8F9042803D1BDE87040FFF7DDBF204689
:1039500003F09FF910B100232B7070BD204603F0D7
:1039600098F9A8B92B4A1378990911D12A492B4DF6
:1039700009684C6A2968611A89B241F25C20814267
:1039800006D9507840EA0320FDF736FBA4B22C603C
:10399000BDE87040FFF7A8BF03F07BF9042807D10A
:1039A000204601231E4A8021BDE8704003F062B822
:1039B000204603F06EF90028CDD1E9E703F069F95C
:1039C0000428C0D0204603F064F90028C3D1154B69
:1039D0001A785878FF2A04D1FF2802D19B78FF2B50
:1039E000B1D00D4B1B685C6A0F4B1D68A1B2AEB223
:1039F0008D420C46A1EB060188BF01F1FF3140EA80
:103A0000022089B200B21D46FDF7ACFBBFE700BF44
:103A10005C930020B8250020408F0020C0250020A6
:103A2000F1EC0008BD250020C4250020F7B5294E83
:103A30003368002B4CD14FF47A7500950323264A46
:103A40002648802102F084FF10B1254806F0F8F9DD
:103A5000224C00950123234A8021204602F0E6FEF5
:103A600010B1002003B0F0BD642005F091F800957E
:103A700001231D4A8021204602F0D8FE0028F0D103
:103A80001A4F642005F084F8009503233A468021FC
:103A9000204602F05DFF0028E3D13A787B7843EAC4
:103AA000022323F002039BB2114A190A517093704A
:103AB000802100950323204602F0B8FE0028D0D1D3
:103AC000642005F065F80B4B3460C4E91333A3663A
:103AD0000120C7E7B4250020BD2500203490002038
:103AE000F4EC0008F3EC0008F2EC0008BA25002022
:103AF0005A00002029390008094808B50368002247
:103B00005A6203F0DFFF074B074802221A70802138
:103B10000123064A006802F0ADFF012008BD00BF86
:103B2000408F00205C930020B4250020F1EC0008B9
:103B300010B50022044680214FF0904001F0D4FFE0
:103B4000002240214FF0904001F0CEFFB4FA84F201
:103B5000520910214FF0904001F0C6FF012010BD26
:103B600010B50446B4FA84F46409002280214FF0B1
:103B7000904001F0B9FF224640214FF0904001F003
:103B8000B3FF224610214FF0904001F0ADFF01201D
:103B900010BD10B5B0FA80F46409224680214FF0C0
:103BA000904001F0A1FF224640214FF0904001F0EB
:103BB0009BFF224610214FF0904001F095FF01201D
:103BC00010BD000008B5B0FA80F252098021024809
:103BD00001F08AFF012008BD0008004808B5B0FACE
:103BE00080F252094FF48071024801F07DFF0120FC
:103BF00008BD00BF0008004808B5B0FA80F25209BD
:103C00004021024801F070FF012008BD0008004873
:103C10000120704708B500220121024801F064FF2D
:103C2000012008BD0008004808B5012211460248DD
:103C300001F05AFF012008BD00080048002070472D
:103C4000034B0360034B0B6080231360704700BF7E
:103C5000C8270020C8250020034B0360034B0B60DE
:103C60004FF4807313607047242C00202428002018
:103C7000F7B5114C01F046FB2568BDB90F4F104E4A
:103C8000384601F0ADF9304601F0AAF90D4B0E4A65
:103C90001F600E4B10211E600A2000950C4B00F097
:103CA00089FA206010B10B4900F086FC03B0BDE832
:103CB000F04001F049BB00BFA42D0020282D0020BA
:103CC0003C2D0020802C0020882C0020842C0020FB
:103CD000542D002037ED0008914208B54160006185
:103CE0000AD8D21A83699A420DD2084B011D18686E
:103CF00001F090F9002008BD9A4201D2994202D207
:103D0000011D034BF3E70120F5E700BF842C0020E1
:103D1000802C002010B588B0FFF7AAFF124B1B685B
:103D2000B3B1002407AA06A905A8CDE90544FFF709
:103D300093FF059B0293069B019302230093079A2E
:103D40000A490B48234600F0CBFD0A4B186040B9E6
:103D50004FF0500383F31188BFF36F8FBFF34F8F82
:103D6000FEE7012008B010BDA42D00203CED0008A6
:103D70004D3E0008A82D002030B5154685B01A46E6
:103D8000034640B94FF0500383F31188BFF36F8FA0
:103D9000BFF34F8FFEE70D4C206880B10529CDE9B8
:103DA000001502930DDC01F0C9F80023022808BFBA
:103DB000089A206818BF1A46694600F049FA05B00B
:103DC00030BD0023694600F0F5FAF8E7A42D002085
:103DD0002DE9F3411B4D4FF000082B681A6832B9EA
:103DE000194A11682960136002B0BDE8F081DB68F0
:103DF000DC681E68271D384601F023F9636A2046F7
:103E00009847E369012BE8D1A36933449E4206D267
:103E1000636024613946286801F0FCF8DDE700237F
:103E2000CDF80080324619462046FFF7A5FF00284E
:103E3000D3D14FF0500383F31188BFF36F8FBFF3DB
:103E40004F8FFEE7802C0020842C00202DE9F04FBE
:103E50006D4DDFF8C48187B02F462B68D3F800B0D2
:103E6000BBF1000F4BD0DB68D3F800A0674C00F02B
:103E7000DFFD00F0E5FD236898428146264640D2EA
:103E8000FFF7A6FFC4F8009000F070FEDFF8849101
:103E9000D9F80000002202A900F0EEFA0028DCD0D8
:103EA000029B002B03DADDE90401039B9847029B88
:103EB000002BEDDB049C636913B1201D01F0C1F8F8
:103EC00000F0BEFD33689842834601D2FFF780FFC1
:103ED000029AC6F800B0092ADAD80123934013F4F5
:103EE000047A7ED113F0C70F54D19B06D0D594F835
:103EF0002C30002BCCD1204601F064F9C8E7DA461B
:103F0000B4E72060BBF1000F29D0824540D800F013
:103F10002DFE3B68DB68DC68201D01F092F8E36948
:103F2000012B18D1A16953464A4651442046FFF758
:103F3000D3FE80B100230093524619462046FFF776
:103F40001BFF40B94FF0500383F31188BFF36F8F0D
:103F5000BFF34F8FFEE7636A2046984796E72C4BE6
:103F60001B681A68B2FA82F252092A4BAAEB0901BD
:103F7000186800F033FB00F0F9FD002886D14FF0FF
:103F80008053C8F80030BFF34F8FBFF36F8F7DE7CA
:103F90000022EAE7A169039B5A4619442046FFF72D
:103FA0009BFE00283FF474AF636A20469847E3699C
:103FB000012B7FF46DAFA2690399CDF800A00A44EC
:103FC000534651462046FFF7D7FE00287FF460AFE6
:103FD0004FF0500383F31188BFF36F8FBFF34F8F00
:103FE000FEE70399A16141B94FF0500383F31188B3
:103FF000BFF36F8FBFF34F8FFEE75B465A465944BE
:104000002046FFF769FE43E7802C0020502D00205A
:10401000842C0020A42D002004ED00E010B50446FF
:1040200001F070F9A46B01F08FF9B4FA84F0400943
:1040300010BD70B51546026C866B044642B9056822
:104040009DB9406800F08AFF65600136A66370BDC7
:104050006DB9806805F0E0FEA368226C13446268C5
:10406000A360934201D32368A3600020EDE7C068FA
:1040700005F0D2FE236CE26821685B421A448A4252
:10408000E2603EBF62689B18E360022DEDD10EB185
:10409000013EEAE73046D8E7034610B41A6C0846FA
:1040A00062B1D9685C681144A142D96024BF196823
:1040B000D960D9685DF8044B05F0AEBE5DF8044BDD
:1040C000704770B5044601F01DF994F8455004F1AD
:1040D00024066DB2002D14DCFF2384F8453001F076
:1040E00033F901F00FF994F8445004F110066DB261
:1040F000002D12DCFF2384F84430BDE8704001F04D
:1041000023B9636A002BE7D0304600F083FE08B184
:1041100000F008FF013D6DB2DCE72369002BE9D018
:10412000304600F077FE08B100F0FCFE013D6DB2B4
:10413000DEE7000038B50D46044640B94FF05003A5
:1041400083F31188BFF36F8FBFF34F8FFEE701F04A
:10415000D9F8D4E90F302268A2604343D1181B1A62
:1041600013446160E3600021FF23A16384F84430BD
:1041700084F8453095B9236963B104F1100000F06B
:1041800049FE38B10A4B4FF080521A60BFF34F8F8F
:10419000BFF36F8F01F0D8F8012038BD04F1100093
:1041A00000F01EFF04F1240000F01AFFF2E700BF48
:1041B00004ED00E013B51C4640B94FF0500383F303
:1041C0001188BFF36F8FBFF34F8FFEE743B94FF0F6
:1041D000500383F31188BFF36F8FBFF34F8FFEE758
:1041E0004AB191B94FF0500383F31188BFF36F8F39
:1041F000BFF34F8FFEE741B14FF0500383F31188B7
:10420000BFF36F8FBFF34F8FFEE750230193019BE6
:10421000502B08D04FF0500383F31188BFF36F8FFA
:10422000BFF34F8FFEE70123002908BF2246C4E9F0
:104230000F0184F84630194622602046FFF77AFFC6
:104240009DF8103084F84C30204602B010BD0000BC
:104250002DE9FF47884601921F46044640B94FF0BA
:10426000500383F31188BFF36F8FBFF34F8FFEE7C7
:1042700051B9036C43B14FF0500383F31188BFF37E
:104280006F8FBFF34F8FFEE7022F0BD1E36B012B34
:1042900008D04FF0500383F31188BFF36F8FBFF343
:1042A0004F8FFEE700F04AFE50B9019E4EB14FF02D
:1042B000500383F31188BFF36F8FBFF34F8FFEE777
:1042C00000264FF00009DFF8E8A037E0019D1DB996
:1042D00001F03AF8002050E016B902A800F0DAFD2B
:1042E00001F032F800F0A4FB01F00CF894F844302F
:1042F000FF2B08BF84F8449094F84530FF2B08BF8B
:1043000084F8459001F020F801A902A800F0CEFD44
:10431000002846D100F0F6FFA26BE36B9A422FD142
:1043200001F012F8019904F1100000F03BFD204665
:10433000FFF7C7FE00F01AFC50B3012600F0E2FFC1
:10434000A26BE36B9A4201D3022FBFD13A4641469A
:104350002046FFF76EFE636A1BB104F1240000F0F3
:1043600059FD38B1124B4FF080521A60BFF34F8F96
:10437000BFF36F8F00F0E8FF012004B0BDE8F087C5
:1043800000F0E2FF2046FFF79CFE00F0EFFBD4E7D1
:104390004FF08053CAF80030BFF34F8FBFF36F8FD9
:1043A000CBE72046FFF78DFE00F0E0FB92E700BF71
:1043B00004ED00E02DE9F843894690461F46044687
:1043C00040B94FF0500383F31188BFF36F8FBFF3F1
:1043D0004F8FFEE751B9036C43B14FF0500383F3A5
:1043E0001188BFF36F8FBFF34F8FFEE7022F0BD102
:1043F000E36B012B08D04FF0500383F31188BFF318
:104400006F8FBFF34F8FFEE701F09AF8EFF311863D
:104410004FF0500383F31188BFF36F8FBFF34F8FBB
:10442000A26BE36B9A4201D3022F22D194F845503C
:104430003A466DB249462046FFF7FBFD6B1C13D18F
:10444000636A0BB901200BE004F1240000F0E2FCE8
:104450000028F7D0B8F1000FF4D00120C8F8000010
:1044600086F31188BDE8F88301356DB284F84550B4
:10447000E8E70020F4E700002DE9F04385B00F469F
:104480000192044640B94FF0500383F31188BFF303
:104490006F8FBFF34F8FFEE751B9036C43B14FF0FD
:1044A000500383F31188BFF36F8FBFF34F8FFEE785
:1044B00000F044FD50B9019E4EB14FF0500383F31C
:1044C0001188BFF36F8FBFF34F8FFEE700264FF0C9
:1044D0000008DFF8E0903BE0019D1DB900F034FFDB
:1044E000002052E016B902A800F0D4FC00F02CFF26
:1044F00000F09EFA00F006FF94F84430FF2B08BF4E
:1045000084F8448094F84530FF2B08BF84F8458038
:1045100000F01AFF01A902A800F0C8FC00283DD154
:104520002046FFF77BFD98B3019904F1240000F0C9
:1045300039FC2046FFF7C5FD00F018FB38B94FF0F5
:104540008053C9F80030BFF34F8FBFF36F8F012640
:1045500000F0D8FEA56B002DBED039462046013DA7
:10456000FFF79AFDA563236963B104F1100000F021
:1045700051FC38B10F4B4FF080521A60BFF34F8F90
:10458000BFF36F8F00F0E0FE012005B0BDE8F083BF
:104590002046FFF796FD00F0E9FAD8E72046FFF73E
:1045A00090FD00F0E3FA2046FFF738FD0028CED05A
:1045B00096E700BF04ED00E030B5074A002352F84B
:1045C000335002EBC3041DB942F83310606030BDB4
:1045D0000133082BF3D1FAE76093002070B504464D
:1045E0000D46164600F08EFE94F84430FF2B04BFB3
:1045F000002384F8443094F84530FF2B04BF002397
:1046000084F8453000F0A0FEA36B2BB93246294652
:1046100004F1240000F0E0FB2046BDE87040FFF705
:1046200050BD00002DE9F041044600F06BFE2F4B19
:104630002F4D1A682F4F01321A602E68002E49D173
:104640002C601B68012B1FD14FF0140808FB06706B
:10465000013600F0C5FC382EF8D1DFF8C480264EB4
:10466000404600F0BDFC304600F0BAFC234800F0A4
:10467000B7FC234800F0B4FC224800F0B1FC224B08
:10468000C3F80080214B1E60214A13680133136078
:10469000204A63641168E36A14208B4200FB0370B4
:1046A00004F1040188BF136000F0A8FC00F04CFE88
:1046B000194B1B6863B12B68DA6AE36A9A4207D226
:1046C000164B4FF080521A60BFF34F8FBFF36F8FBE
:1046D000BDE8F081104B1B68002BD5D12B68DA6A3E
:1046E000E36A9A4298BF2C60CEE700BF18320020E0
:1046F000AC2D0020B82D0020443200206032002074
:104700008C32002078320020B02D0020B42D002003
:10471000283200202C3200207432002004ED00E00A
:104720003032002010B590F8593004463BB9006B88
:1047300000F048FD2046BDE8104000F043BD012BCD
:10474000F9D0022B08D04FF0500383F31188BFF348
:104750006F8FBFF34F8FFEE710BD000080B5DFF80D
:104760005C80124F124C134D236863B9124B1B68C7
:10477000012BF8D94FF08053C8F80030BFF34F8FAA
:10478000BFF36F8FEEE700F0BDFDFB68DE68301D04
:1047900000F057FC2B68013B2B602368013B236032
:1047A00000F0D2FD3046FFF7BDFFDDE78C32002080
:1047B0001C32002018320020B82D002004ED00E04B
:1047C000064A13681968064B19B94FF0FF321A6090
:1047D00070471268D268D2685268F8E7B02D00209E
:1047E000583200202DE9F047DDE9097496000D46A6
:1047F00032468046A521206B994605F018FB236BB5
:10480000043E1E4426F007066B1E04F134020F35E9
:1048100013F8011F02F8011B197809B1AB42F7D157
:10482000089D372D28BF37254FF0000AE562C4E9FF
:10483000135A201D84F843A000F0DDFBC5F13805B4
:1048400004F1180000F0D7FBC4F854A02461A5615E
:10485000646284F858A04A464146304600F028FD7C
:10486000206007B13C60BDE8F0870000F8B5164B4A
:10487000164E1C680546306804300F4600F0E1FB18
:104880006B1C334607D137B1316811480431BDE89C
:10489000F84000F0B3BB1A686419546007D30D4A9E
:1048A00010681968BDE8F840043100F0B3BB0A4A4B
:1048B00010681968043100F0ADFB084B1A68A24279
:1048C00088BF1C60F8BD00BFA0320020AC2D0020C6
:1048D00078320020B42D0020B02D00205832002066
:1048E00070B586B0DDE90B5445B94FF0500383F342
:1048F0001188BFF36F8FBFF34F8FFEE744B94FF0BE
:10490000500383F31188BFF36F8FBFF34F8FFEE720
:104910005C260496049E5C2E08D04FF0500383F36F
:104920001188BFF36F8FBFF34F8FFEE7256302251A
:1049300084F8595005AD01950A9D02940095FFF742
:1049400051FF2046FFF76EFE059806B070BD2DE9B9
:10495000F043074685B0900088461646994600F019
:10496000A5FB0546E8B15C2000F0A0FB0446A8B119
:10497000002380F859300D9B056301930C9B029036
:10498000009332464B4641463846FFF72BFF204600
:10499000FFF748FE012005B0BDE8F083284600F08F
:1049A00011FC4FF0FF30F6E710B588B0002407AADD
:1049B00006A905A8CDE90544FFF742F9059B029336
:1049C000069B079A15491648CDE900432346FFF791
:1049D00087FFA8B1FFF79EF9012813D14FF05003CC
:1049E00083F31188BFF36F8FBFF34F8F0D4B4FF0E1
:1049F000FF321A600C4B18600C4B1C6000F01AFD63
:104A000008B010BD0130FBD14FF0500383F3118883
:104A1000BFF36F8FBFF34F8FFEE700BF44ED000879
:104A20005D4700085832002074320020A032002078
:104A3000024A136801331360704700BF243200201C
:104A4000014B1868704700BFA03200202DE9F84FD5
:104A50003B4B1B68002B6CD13A4B1C6801341C602B
:104A6000BCB9394B1A68126842B14FF0500383F356
:104A70001188BFF36F8FBFF34F8FFEE7334A19687A
:104A8000106818601160324A136801331360FFF731
:104A900097FE304D304F2B68A3424FF0000B11D9D9
:104AA0003A682E4BD16A14224A439A58022A28BFE8
:104AB0004FF0010B2A4A1268002A0CBF5846012009
:104AC000BDE8F88FDFF88090DFF89CA0D9F80020CF
:104AD00012681AB94FF0FF322A60E1E7D9F80020D6
:104AE000D268D66871688C4201D22960D8E706F195
:104AF0000408404600F0A5FAB16A19B106F11800A1
:104B000000F09FFAF06ADAF80010144B88424FF078
:104B1000140288BFCAF80000414602FB003000F0D2
:104B20006DFA3868F16AC26A914228BF4FF0010BF2
:104B3000CCE70C4A1368013313604FF0000BB9E760
:104B400024320020A0320020B02D0020B42D0020FF
:104B50005C32002058320020AC2D0020B82D0020FF
:104B6000A4320020203200202C3200202DE9F04118
:104B70002F4C236843B94FF0500383F31188BFF3E0
:104B80006F8FBFF34F8FFEE700F0BCFB2368013B44
:104B9000236024682CB1002400F0D6FB2046BDE839
:104BA000F081244B1B68002BF5D0234D234EDFF8FA
:104BB000A0801DE0EB68DC68271D04F1180000F000
:104BC00040FA384600F03DFAE36A32681420934216
:104BD00000FB0380394688BF336000F00FFA184BA2
:104BE000E26A1B68DB6A9A4202D3164B01221A6002
:104BF0002B68002BDED10CB1FFF7E2FD124D2C68C3
:104C000044B1104E0127FFF721FF00B13760013C8E
:104C1000F9D12C600B4B1B68002BBCD00B4B4FF019
:104C200080521A60BFF34F8FBFF36F8F0124B3E739
:104C30002432002018320020603200202C32002064
:104C4000AC2D0020A43200202032002004ED00E032
:104C5000B82D002010B540B94FF0500383F31188F0
:104C6000BFF36F8FBFF34F8FFEE741B94FF0500393
:104C700083F31188BFF36F8FBFF34F8FFEE7164B9F
:104C80001B6843B14FF0500383F31188BFF36F8F5C
:104C9000BFF34F8FFEE7FFF7CBFE104B04681A6897
:104CA00063182CBF01210021944203600CD961B923
:104CB000FFF75CFF38B90A4B4FF080521A60BFF320
:104CC0004F8FBFF36F8F10BD09B99A42F0D2002108
:104CD000981AFFF7CBFDEBE724320020A03200202A
:104CE00004ED00E008B540B90E4B4FF080521A6059
:104CF000BFF34F8FBFF36F8F08BD0B4B196841B1E6
:104D00004FF0500383F31188BFF36F8FBFF34F8FC2
:104D1000FEE7FFF78DFEFFF7A9FDFFF727FF00284D
:104D2000E2D0E9E704ED00E024320020184B1A68D5
:104D3000184BF0B512B101221A60F0BD164D1A6081
:104D4000164A2B681427164607FB03F150185458CF
:104D50008CB144680831646844600A44944204BFDA
:104D600062684260142202FB03625268D1680C4AF6
:104D700011602B60E1E743B94FF0500383F31188D2
:104D8000BFF36F8FBFF34F8FFEE7013BDCE700BF40
:104D900024320020A43200202C320020B82D002024
:104DA000AC2D002010B50C4640B94FF0500383F3F2
:104DB0001188BFF36F8FBFF34F8FFEE7054B196864
:104DC000183100F027F920460121BDE81040FFF717
:104DD0004DBD00BFAC2D002038B50D46144640B97E
:104DE0004FF0500383F31188BFF36F8FBFF34F8FE2
:104DF000FEE7074B1968183100F000F9002C214636
:104E00000CBF28464FF0FF30BDE83840FFF72EBDFD
:104E1000AC2D002038B5C368DC6844B94FF05003AE
:104E200083F31188BFF36F8FBFF34F8FFEE704F159
:104E30001805284600F005F9104B1B68DBB9251D45
:104E4000284600F0FEF80E4AE36A11688B4288BFDC
:104E500013600C4A1420294600FB032000F0CEF812
:104E6000094BE26A1B68DB6A9A4283BF074B012049
:104E70001860002038BD29460548EFE7243200209D
:104E80002C320020B82D0020AC2D0020A4320020B0
:104E900060320020034B1B680360034B1B684360B8
:104EA000704700BF5C320020A0320020F8B50C46ED
:104EB000054640B94FF0500383F31188BFF36F8F5D
:104EC000BFF34F8FFEE741B94FF0500383F31188D2
:104ED000BFF36F8FBFF34F8FFEE700F013FA0F4B56
:104EE0006868196823685E1CA1EB00020DD00C4EA7
:104EF0002F683668B74201D088420DD9934209D94C
:104F00009B1A23602846FFF7C5FF002400F01CFA17
:104F10002046F8BD002323600124F7E7A0320020DB
:104F20005C320020014B01221A607047A43200203D
:104F3000014B1868704700BFAC2D0020054B1B6863
:104F400033B1054B1B68002B0CBF022000207047BB
:104F500001207047743200202432002038B508B98F
:104F6000002038BD1B4B1C68844208D04FF0500312
:104F700083F31188BFF36F8FBFF34F8FFEE7236D6D
:104F800043B94FF0500383F31188BFF36F8FBFF322
:104F90004F8FFEE7E16AE26C013B91422365DFD06F
:104FA000002BDDD1251D284600F04BF8E36CE362B1
:104FB000C3F13802A261084A11688B4288BF1360AE
:104FC000064A142000FB0320294600F017F80120B0
:104FD000C7E700BFAC2D00202C320020B82D0020E8
:104FE00000F108034FF0FF324360C0E90223036180
:104FF00000230360704700230361704743684B60E0
:105000009A688A609A685160996003680861013300
:10501000036070470A68531C30B50AD103695A68A7
:105020004A6091608B6059600368086101330360D6
:1050300030BD00F108035C6825689542EFD823462F
:10504000F9E7D0E9011203698A6082685160596802
:10505000814208BF5A60002202611A68013A1A6050
:105060001868704710B50F4B1A68824218D35C68F5
:105070001919884201BF41681846091959604468E6
:1050800001198A4207D1084909688A421FBF51683D
:105090001268091941609842026018BF186010BD7B
:1050A0001346E1E7B85A0020A83200202DE9F0416C
:1050B0000446FFF7BDFC3D493D4D0B68FBB93D4A39
:1050C000560702F520531DBF073222F007029B1A34
:1050D0004FF420531344384E083B23F007030020BD
:1050E00070603260C3E90000981A0B60C2E90030BA
:1050F000324B1860324B18604FF000432B602F6822
:1051000027424ED1002C3FD004F1080358071CBFA2
:1051100023F007030833002B43D0294A16689E4228
:1051200090463ED3244A15686868984201D22C689C
:10513000A4B90968A94234D0296814681160C21A58
:10514000102A12D9E81841070BD04FF0500383F30F
:105150001188BFF36F8FBFF34F8FFEE72A462546B6
:10516000E2E742606B60FFF77DFF14496B680868F7
:10517000F61A1F4386424FF00003C8F8006038BF9C
:105180000E6008346F602B60FFF7F0FC63070AD0F5
:105190004FF0500383F31188BFF36F8FBFF34F8F2E
:1051A000FEE70024F0E72046BDE8F081A8320020A9
:1051B000AC5A0020AC320020B85A0020B45A00206B
:1051C000B05A002010B5044670B3184A50F8043C99
:1051D0001268134208D14FF0500383F31188BFF3D4
:1051E0006F8FBFF34F8FFEE750F8081C41B14FF0AF
:1051F000500383F31188BFF36F8FBFF34F8FFEE728
:1052000023EA020340F8043CFFF712FC084A54F872
:10521000043C1168A4F108000B441360FFF722FF5F
:10522000BDE81040FFF7A2BC10BD00BFAC5A002083
:10523000B05A002082B0002301930D4B1B6801334C
:1052400008D04FF0500383F31188BFF36F8FBFF383
:105250004F8FFEE74FF0500383F31188BFF36F8F3A
:10526000BFF34F8F019B002BFCD002B0704700BFF3
:105270006000002008480068006880F308884FF04C
:10528000000080F3148862B661B6BFF34F8FBFF39E
:105290006F8F00DF00BF000008ED00E0DFF80C00BA
:1052A000016841F4700101607047000088ED00E082
:1052B0004FF0807340F8043C074B40F80C3C21F061
:1052C00001016FF0020340F8081C40F8202C40F860
:1052D000243C4438704700BF3552000800000000ED
:1052E000074B19680868B0E8F04F80F30988BFF3EE
:1052F0006F8F4FF0000080F311887047AFF300808C
:10530000AC2D00204FF0500383F31188BFF36F8F53
:10531000BFF34F8F0A4A13680133012B13600DD17D
:10532000084B1B6813F0FF0F08D04FF0500383F3B6
:105330001188BFF36F8FBFF34F8FFEE7704700BF39
:105340006000002004ED00E0084A136843B94FF004
:10535000500383F31188BFF36F8FBFF34F8FFEE7C6
:10536000013B13600BB983F3118870476000002084
:10537000EFF30980BFF36F8F154B1A681EF0100F03
:1053800008BF20ED108A20E9F04F10602DE90900D8
:105390004FF0500080F31188BFF34F8FBFF36F8F32
:1053A000FFF7C4FC4FF0000080F3118809BC1968B6
:1053B0000868B0E8F04F1EF0100F08BFB0EC108A7C
:1053C00080F30988BFF36F8F704700BFAFF3008091
:1053D000AC2D002008B54FF0500383F31188BFF3C4
:1053E0006F8FBFF34F8FFFF731FB18B1034B4FF0B7
:1053F00080521A60002383F3118808BD04ED00E099
:10540000084A0949002313600B60084B4FF47A7176
:105410001B68B3FBF1F30649013B0B6007231360E4
:10542000704700BF10E000E018E000E064000020DA
:1054300014E000E0394B3A4A13B51968914208D19B
:105440004FF0500383F31188BFF36F8FBFF34F8F7B
:10545000FEE71A68334B9A4208D14FF0500383F3AA
:105460001188BFF36F8FBFF34F8FFEE72E4B1A7873
:10547000D2B20192FF221A701B782C4ADBB28DF84F
:1054800003309DF8033003F050031370284B0722BC
:105490001A6000219DF80300000602F1FF340DD4CC
:1054A00001B11A601A68032A11D04FF0500383F338
:1054B0001188BFF36F8FBFF34F8FFEE79DF8032076
:1054C0005200D2B28DF8032001212246E2E71202F7
:1054D00002F4E0621A60019B134ADBB21370154BB1
:1054E0001A6842F470021A601A6842F070421A6038
:1054F000FFF786FF104B00241C60FFF7CFFE0F4A1A
:10550000136843F040431360FFF7B4FEFFF70EFC4F
:10551000FFF790FE204602B010BD00BF00ED00E096
:1055200071C20F4170C20F4100E400E0C05A002078
:10553000C45A002020ED00E06000002034EF00E0BD
:10554000EFF305830F2B0ED9104A9B5C104A12789B
:105550009A4208D94FF0500383F31188BFF36F8F3D
:10556000BFF34F8FFEE70B4B0B4A1B68126803F427
:10557000E063934208D94FF0500383F31188BFF3DF
:105580006F8FBFF34F8FFEE7704700BFF0E300E07F
:10559000C05A00200CED00E0C45A002001207047E2
:1055A00008B504F0FDFB162303604FF0FF3008BD83
:1055B00008B504F0F5FB16230360FEE770B50E4650
:1055C00015460C46A31B9D4201DC284670BDAFF377
:1055D000008004F8010BF5E770B50E4615460C4641
:1055E000A31B9D4201DC284670BD14F8010BAFF3EC
:1055F0000080F5E74FF0FF3070474FF400534B60E9
:1056000000207047012070470020704708B50A4B02
:105610001968024609B909491960186869460244BF
:105620008A4206D904F0BCFB0C2303604FF0FF3024
:1056300008BD1A60FCE700BFC85A0020B8930020DC
:10564000054BD3F8882042F47002C3F888204FF04D
:1056500000629A60704700BF00ED00E0DFF834D0D0
:10566000002103E00C4B5B58435004310B480C4BBA
:1056700042189A42F6D30B4A02E0002342F8043B58
:10568000094B9A42F9D3FFF7DBFF04F0A1FBFDF7CA
:1056900021F8FEE700000120C0F000080000002013
:1056A000200A0020200A0020B4930020FEE700001A
:1056B000074AD36823F4E0631B041B0C43F0BF6369
:1056C000000243F4003300F4E0600343D36070470A
:1056D00000ED00E0174B70B5DC68C4F30224C4F1A0
:1056E0000705042D04F1040328BF04254FF0FF36FD
:1056F000062B06FA05F38CBF033C002421EA0303C2
:10570000A34006FA04F422EA0404002843EA04034E
:10571000A8BF00F160404FEA0313BCBF00F00F00C8
:10572000054ADBB2AABF00F56140135480F800338C
:1057300070BD00BF00ED00E014ED00E0002808DBC4
:105740004209012300F01F0003FA00F0014B43F867
:105750002200704700E100E001680B4B994210B550
:105760004FF0140408D8094B094A0B44B3FBF4F377
:105770009B00C0E90F2310BD064B074A0B44B3FB47
:10578000F4F39B00F5E700BF07040240F8FFFDBFFC
:1057900000000240F8FBFDBF0004024038B504469B
:1057A00008B3022380F82130D0E901352B43C568C6
:1057B00001682B4305690A682B4345692B438569BA
:1057C0002B43C56922F47F5222F030022B4313434E
:1057D0000B60FFF7C1FF00200123A06384F8213094
:1057E00084F8200038BD0120FCE7F0B590F8204097
:1057F000012C35D090F821500124A54280F820409A
:105800004FF000064FF0020428D180F821400468D0
:105810008663266826F001062660D0E90F67BD4042
:105820007560636043680568102BC36A0BBFA26094
:10583000A160E160E2604BB1236843F00E03236096
:105840002B6843F001032B600020F0BD236843F078
:105850000A032360236823F00403F0E780F8206044
:105860000220F2E790F82120022A10B503D004228A
:105870008263012010BD0268C46B1168436B21F084
:105880000E011160116821F001011160026C01210B
:1058900001FA02F26260002480F8211080F82040B2
:1058A00013B198472046E5E71846E3E7C16B026C61
:1058B000036870B40E681D680424944034420ED00E
:1058C00015F0040F0BD01A6892065EBF1A6822F01A
:1058D00004021A60C36A4C6073B370BC1847022498
:1058E0009440344212D015F0020F0FD01A6895067A
:1058F00006D41A6822F00A021A60012380F82130C7
:1059000000234C6080F82030836AE5E70824944047
:10591000344211D02C070FD51C6824F00E041C60F3
:10592000012303FA02F24A60836380F821300023E6
:1059300080F82030036BCFE770BC70472DE9F74F3C
:10594000D1F80080DFF89091614A002338FA03F41F
:1059500002D103B0BDE8F08F4FF0010C0CFA03FC4C
:105960001CEA080600F0A6804C6824F01007022FFD
:1059700016D14FEAD30A00EB8A0A03F0070BDAF8D4
:1059800020504FEA8B0B4FF00F0E0EFA0BFE25EA5C
:105990000E0E0D6905FA0BF545EA0E05CAF8205002
:1059A0004FEA430A0325D0F800B005FA0AF5ED43A3
:1059B00004F0030E05EA0B0B0EFA0AFE013F4EEA55
:1059C0000B0E012FC0F800E011D8876807EA050B1D
:1059D000CF6807FA0AFE4EEA0B078760476827EA96
:1059E0000C0CC4F300179F4047EA0C074760C768D8
:1059F0003D408F6807FA0AF73D43C560E50059D579
:105A0000D9F8185045F00105C9F81850D9F81850C0
:105A100023F0030707F1804705F0010507F58037FC
:105A2000019503F0030E019DBD684FEA8E0E4FF005
:105A30000F0C0CFA0EFCB0F1904F25EA0C0C3BD089
:105A4000244DA8423AD005F58065A84238D005F526
:105A50008065A84236D005F58065A84234D005F5AA
:105A60008065A84232D005F58065A84214BF07259D
:105A7000062505FA0EF545EA0C05BD601568F743E5
:105A800014F4803F0CBF3D4035431560556814F455
:105A9000003F0CBF3D4035435560956814F4801FAE
:105AA0000CBF3D4035439560D568A40254BF3D40CE
:105AB0003543D560013349E70025DAE70125D8E70A
:105AC0000225D6E70325D4E70425D2E70525D0E74C
:105AD000000401400004004800100240036919421C
