:020000040800F2
:1000000000000120796000086134000865340008B0
:10001000793400087B3400087D34000800000000BB
:10002000000000000000000000000000A15D0008CA
:100030007F34000800000000315E0008955E000873
:10004000C9600008C9600008C9600008C9600008EC
:10005000C9600008C9600008C96000088134000850
:10006000873400088D34000893340008C960000804
:1000700099340008A5340008C9600008C960000868
:10008000C9600008B1340008C9600008C9600008F0
:10009000C9600008C9600008C9600008BD340008D4
:1000A000C960000855300008C9600008C960000830
:1000B000D1340008DD340008C9600008E9340008C4
:1000C000F5340008C9600008C9600008C96000086C
:1000D000C9600008C9600008C9600008C96000085C
:1000E00001350008C9600008C9600008C96000083F
:1000F000C9600008C9600008C9600008C96000083C
:10010000C96000080000000000000000C96000088D
:1001100011380008C9600008C9600008C9600008FB
:10012000C9600008C960000829350008C9600008D6
:1001300035350008C960000800000000000000001C
:10014000C9600008C9600008C9600008000000001C
:10015000000000000000000000000000000000009F
:10016000C9600008C9600008C9600008C9600008CB
:10017000C9600008C9600008C9600008C9600008BB
:10018000C9600008C960000800000000000000000D
:04019000C96000083A
:1001A00010B5054C237833B9044B13B10448AFF3B1
:1001B00000800123237010BDE80100200000000032
:1001C00010AD000808B5034B1BB103490348AFF35A
:1001D000008008BD00000000EC01002010AD000808
:1001E00081F0004102E000BF83F0004330B54FEAE8
:1001F00041044FEA430594EA050F08BF90EA020F55
:100200001FBF54EA000C55EA020C7FEA645C7FEAE7
:10021000655C00F0E2804FEA5454D4EB5555B8BF0A
:100220006D420CDD2C4480EA020281EA030382EA7B
:10023000000083EA010180EA020281EA0303362D0D
:1002400088BF30BD11F0004F4FEA01314FF4801CE0
:100250004CEA113102D0404261EB410113F0004FF2
:100260004FEA03334CEA133302D0524263EB4303A9
:1002700094EA050F00F0A780A4F10104D5F1200E47
:100280000DDB02FA0EFC22FA05F2801841F10001A2
:1002900003FA0EF2801843FA05F359410EE0A5F176
:1002A00020050EF1200E012A03FA0EFC28BF4CF0A7
:1002B000020C43FA05F3C01851EBE37101F000455D
:1002C00007D54FF0000EDCF1000C7EEB00006EEB6A
:1002D0000101B1F5801F1BD3B1F5001F0CD34908F4
:1002E0005FEA30004FEA3C0C04F101044FEA44524B
:1002F00012F5800F80F09A80BCF1004F08BF5FEAD2
:10030000500C50F1000041EB045141EA050130BDB1
:100310005FEA4C0C404141EB010111F4801FA4F154
:100320000104E9D191F0000F04BF01460020B1FAA9
:1003300081F308BF2033A3F10B03B3F120020CDAE1
:100340000C3208DD02F1140CC2F10C0201FA0CF0BF
:1003500021FA02F10CE002F11402D8BFC2F1200C24
:1003600001FA02F120FA0CFCDCBF41EA0C019040DA
:10037000E41AA2BF01EB0451294330BD6FEA040423
:100380001F3C1CDA0C340EDC04F11404C4F120020E
:1003900020FA04F001FA02F340EA030021FA04F320
:1003A00045EA030130BDC4F10C04C4F1200220FA77
:1003B00002F001FA04F340EA0300294630BD21FAB5
:1003C00004F0294630BD94F0000F83F4801306BF7B
:1003D00081F480110134013D4EE77FEA645C18BF6F
:1003E0007FEA655C29D094EA050F08BF90EA020F06
:1003F00005D054EA000C04BF1946104630BD91EAFE
:10040000030F1EBF0021002030BD5FEA545C05D100
:100410004000494128BF41F0004130BD14F580043F
:100420003CBF01F5801130BD01F0004545F0FE41B3
:1004300041F470014FF0000030BD7FEA645C1ABFE8
:10044000194610467FEA655C1CBF0B46024650EA1F
:10045000013406BF52EA033591EA030F41F400214B
:1004600030BD00BF90F0000F04BF0021704730B5D1
:100470004FF4806404F132044FF000054FF00001A6
:1004800050E700BF90F0000F04BF0021704730B567
:100490004FF4806404F1320410F0004548BF40423C
:1004A0004FF000013EE700BF42004FEAE2014FEA91
:1004B00031014FEA02701FBF12F07F4393F07F4F6C
:1004C00081F06051704732F07F4208BF704793F06F
:1004D0007F4F04BF41F40021704730B54FF4607482
:1004E00001F0004521F000411CE700BF50EA010285
:1004F00008BF704730B54FF000050AE050EA01022E
:1005000008BF704730B511F0004502D5404261EB9D
:1005100041014FF4806404F132045FEA915C3FF4DE
:10052000D8AE4FF003025FEADC0C18BF03325FEA7B
:10053000DC0C18BF033202EBDC02C2F1200300FA2C
:1005400003FC20FA02F001FA03FE40EA0E0021FA51
:1005500002F11444BDE600BF70B54FF0FF0C4CF43F
:10056000E06C1CEA11541DBF1CEA135594EA0C0FF1
:1005700095EA0C0F00F0DEF82C4481EA030621EA2C
:100580004C5123EA4C5350EA013518BF52EA033567
:1005900041F4801143F4801338D0A0FB02CE4FF019
:1005A0000005E1FB02E506F00042E0FB03E54FF049
:1005B0000006E1FB03569CF0000F18BF4EF0010E41
:1005C000A4F1FF04B6F5007F64F5407404D25FEA3D
:1005D0004E0E6D4146EB060642EAC62141EA5551F0
:1005E0004FEAC52040EA5E504FEACE2EB4F1FD0C32
:1005F00088BFBCF5E06F1ED8BEF1004F08BF5FEAB0
:10060000500E50F1000041EB045170BD06F0004661
:1006100046EA010140EA020081EA0301B4EB5C040E
:10062000C2BFD4EB0C0541EA045170BD41F4801106
:100630004FF0000E013C00F3AB8014F1360FDEBF2B
:10064000002001F0004170BDC4F10004203C35DA07
:100650000C341BDC04F11404C4F1200500FA05F38A
:1006600020FA04F001FA05F240EA020001F000422B
:1006700021F0004110EBD37021FA04F642EB0601A1
:100680005EEA430E08BF20EAD37070BDC4F10C04CB
:10069000C4F1200500FA04F320FA05F001FA04F28F
:1006A00040EA020001F0004110EBD37041F100017B
:1006B0005EEA430E08BF20EAD37070BDC4F1200586
:1006C00000FA05F24EEA020E20FA04F301FA05F2EE
:1006D00043EA020321FA04F001F0004121FA04F296
:1006E00020EA020000EBD3705EEA430E08BF20EA66
:1006F000D37070BD94F0000F0FD101F000464000A0
:1007000041EB010111F4801F08BF013CF7D041EA21
:10071000060195F0000F18BF704703F00046520025
:1007200043EB030313F4801F08BF013DF7D043EAF6
:100730000603704794EA0C0F0CEA135518BF95EAAC
:100740000C0F0CD050EA410618BF52EA4306D1D133
:1007500081EA030101F000414FF0000070BD50EA52
:10076000410606BF1046194652EA430619D094EADC
:100770000C0F02D150EA013613D195EA0C0F05D1C6
:1007800052EA03361CBF104619460AD181EA03011A
:1007900001F0004141F0FE4141F470014FF00000D2
:1007A00070BD41F0FE4141F4780170BD70B54FF06D
:1007B000FF0C4CF4E06C1CEA11541DBF1CEA1355ED
:1007C00094EA0C0F95EA0C0F00F0A7F8A4EB0504CF
:1007D00081EA030E52EA03354FEA013100F08880C6
:1007E0004FEA03334FF0805545EA131343EA12638F
:1007F0004FEA022245EA111545EA10654FEA002644
:100800000EF000419D4208BF964244F1FD0404F5FC
:10081000407402D25B084FEA3202B61A65EB030558
:100820005B084FEA32024FF480104FF4002CB6EB15
:10083000020E75EB030E22BFB61A754640EA0C0095
:100840005B084FEA3202B6EB020E75EB030E22BFD5
:10085000B61A754640EA5C005B084FEA3202B6EB16
:10086000020E75EB030E22BFB61A754640EA9C00D5
:100870005B084FEA3202B6EB020E75EB030E22BFA5
:10088000B61A754640EADC0055EA060E18D04FEA63
:10089000051545EA16754FEA06164FEAC30343EA03
:1008A00052734FEAC2025FEA1C1CC0D111F4801FD0
:1008B0000BD141EA00014FF000004FF0004CB6E7C9
:1008C00011F4801F04BF01430020B4F1FD0C88BF68
:1008D000BCF5E06F3FF6AFAEB5EB030C04BFB6EB73
:1008E000020C5FEA500C50F1000041EB045170BD66
:1008F0000EF0004E4EEA113114EB5C04C2BFD4EB93
:100900000C0541EA045170BD41F480114FF0000E16
:10091000013C90E645EA060E8DE60CEA135594EA92
:100920000C0F08BF95EA0C0F3FF43BAF94EA0C0F95
:100930000AD150EA01347FF434AF95EA0C0F7FF40A
:1009400025AF104619462CE795EA0C0F06D152EA5E
:1009500003353FF4FDAE1046194622E750EA410642
:1009600018BF52EA43067FF4C5AE50EA41047FF453
:100970000DAF52EA43057FF4EBAE12E74FF0FF3CB8
:1009800006E000BF4FF0010C02E000BF4FF0010C89
:100990004DF804CD4FEA410C7FEA6C5C4FEA430C02
:1009A00018BF7FEA6C5C1BD001B050EA410C0CBF51
:1009B00052EA430C91EA030F02BF90EA020F0020B3
:1009C000704710F1000F91EA030F58BF994208BF1A
:1009D00090422CBFD8176FEAE37040F001007047D7
:1009E0004FEA410C7FEA6C5C02D150EA013C07D12E
:1009F0004FEA430C7FEA6C5CD6D152EA033CD3D079
:100A00005DF8040B704700BF8446104662468C4672
:100A10001946634600E000BF01B5FFF7B7FF0028A5
:100A200048BF10F1000F01BD4DF808EDFFF7F4FFCE
:100A30000CBF012000205DF808FB00BF4DF808ED59
:100A4000FFF7EAFF34BF012000205DF808FB00BF7C
:100A50004DF808EDFFF7E0FF94BF012000205DF89E
:100A600008FB00BF4DF808EDFFF7CEFF94BF012053
:100A700000205DF808FB00BF4DF808EDFFF7C4FF4C
:100A800034BF012000205DF808FB00BF4FEA41029F
:100A900012F5001215D211D56FF47873B3EB6252D0
:100AA00012D94FEAC12343F0004343EA505311F0F7
:100AB000004F23FA02F018BF404270474FF0000089
:100AC000704750EA013005D111F0004008BF6FF0C7
:100AD000004070474FF00000704700BF4A0011D23D
:100AE00012F5001211D20DD56FF47873B3EB625288
:100AF0000ED44FEAC12343F0004343EA505323FA94
:100B000002F070474FF00000704750EA013002D108
:100B10004FF0FF3070474FF0000070474FEA41023E
:100B2000B2F1E04324BFB3F5001CDCF1FE5C0DD94B
:100B300001F0004C4FEAC0024CEA5070B2F1004F95
:100B400040EB830008BF20F00100704711F0804F98
:100B500021D113F13872BCBF01F00040704741F45D
:100B600080114FEA5252C2F11802C2F1200C10FA61
:100B70000CF320FA02F018BF40F001004FEAC12345
:100B80004FEAD32303FA0CFC40EA0C0023FA02F3E9
:100B90004FEA4303CCE77FEA625307D150EA0133BF
:100BA0001EBF4FF0FE4040F44000704701F000408F
:100BB00040F0FE4040F40000704700BF53B94AB90E
:100BC000002908BF00281CBF4FF0FF314FF0FF3055
:100BD00000F072B9ADF1080C6DE904CE00F006F832
:100BE000DDF804E0DDE9022304B070472DE9F047A9
:100BF000089E04468846002B4BD18A42154667D989
:100C0000B2FA82F24AB1C2F1200701FA02F320FAE5
:100C100007F7954047EA030894404FEA154E230C26
:100C2000B8FBFEF71FFA85FC0EFB178843EA084362
:100C300007FB0CF1994209D9EB1807F1FF3080F05E
:100C40001B81994240F21881023F2B445B1AA4B2E7
:100C5000B3FBFEF00EFB103344EA034400FB0CFC34
:100C6000A44509D92C1900F1FF3380F00781A44570
:100C700040F2048102382C4440EA0740A4EB0C0403
:100C800000271EB1D4400023C6E900433946BDE821
:100C9000F0878B4209D9002E00F0EB800027C6E9CF
:100CA000000138463946BDE8F087B3FA83F7002FD4
:100CB00047D18B4202D3824200F2FA80841A61EB60
:100CC000030301209846002EE0D0C6E90048DDE786
:100CD00002B9FFDEB2FA82F2002A40F08F80491B8F
:100CE0004FEA154E1FFA85F80127B1FBFEFC230CD5
:100CF0000EFB1C1143EA014308FB0CF1994207D992
:100D0000EB180CF1FF3002D2994200F2CD808446FC
:100D1000591AA3B2B1FBFEF00EFB101443EA0444CF
:100D200008FB00F8A04507D92C1900F1FF3302D2C7
:100D3000A04500F2B6801846A4EB080440EA0C4037
:100D40009FE7C7F1200CBB4022FA0CFE4EEA030ECF
:100D500001FA07F420FA0CF521FA0CF34FEA1E48C9
:100D60002543B3FBF8F92C0C08FB19331FFA8EFA54
:100D700044EA034309FB0AF49C4202FA07F200FA30
:100D800007F10BD91EEB030309F1FF3080F08780D8
:100D90009C4240F28480A9F1020973441B1BADB24E
:100DA000B3FBF8F008FB103345EA034400FB0AFAF2
:100DB000A24508D91EEB040400F1FF336BD2A24513
:100DC00069D90238744440EA0940A0FB0289A4EBC7
:100DD0000A044C45C2464B4654D351D0002E69D02C
:100DE000B1EB0A0564EB030404FA0CFCFD40FC4083
:100DF0004CEA0505C6E90054002747E7C2F1200385
:100E000020FA03F7954001FA02F021FA03F34FEAC2
:100E1000154E3843010CB3FBFEF71FFA85F80EFBA5
:100E2000173341EA034107FB08F38B4204FA02F44B
:100E300007D9691807F1FF3C2FD28B422DD9023F09
:100E40002944CB1A81B2B3FBFEF00EFB103341EA0A
:100E5000034100FB08F38B4207D9691800F1FF3CFE
:100E600017D28B4215D902382944C91A40EA0747DC
:100E70003BE73746304609E70746E7E61846FBE614
:100E80004145ABD2B8EB020A69EB0E0201381346BA
:100E9000A4E76046E9E7184695E76746D1E781464B
:100EA0007CE702382C4447E7ACF1020C2B442FE7D7
:100EB000384608E73746E9E6704700BF034613F8AF
:100EC000012B002AFBD1181A0138704700000000DE
:100ED00001F0FF01102A2BDB10F0070F08D010F8EB
:100EE000013B013A8B422DD010F0070F42B3F6D1EF
:100EF000F0B441EA012141EA014122F007047FF008
:100F000000070023F0E80256083C85EA010586EA5E
:100F1000010685FA47F5A3FA87F586FA47F6A5FA9A
:100F200087F68EB9EED1F0BC01F0FF0102F00702A6
:100F300032B110F8013B013A83EA010313B1F8D151
:100F40000020704701387047002D06BF3546033832
:100F5000073815F0010F07D1013015F4807F02BF6B
:100F6000013015F4C03F0130F0BC0138704700BFBC
:100F7000F1EE103A43F08073E1EE103A704700BF93
:100F8000036810B543FA01F4E40706D52AB9012233
:100F900002FA01F123EA0103036010BD2DE9F04FCD
:100FA0004FF0FF3985B0D64C4FF0FF31206803F089
:100FB000D3FDD44809F042F900231A4619462068A7
:100FC00003F016FC03F0D2F80546002840F09381A8
:100FD0004FF0FF31206803F0BFFDCB4809F02EF938
:100FE0002B462A462946206803F002FCC74BC84915
:100FF000206812221A80C74B4FF496721A80C64B93
:101000003C221A8014230B80C4494FF0050BA1F831
:1010100000B0C3490A80C34A1380C34B96221A808A
:10102000C24B4FF47A78A3F80080C14B4FF00A0A04
:10103000A3F800A0BF4B03274FF0FF311F8003F040
:101040008BFDBD4809F0FAF82B462A462946206850
:1010500003F0CEFB012003F095F84FF0FF3120683C
:1010600003F07AFDB54809F0E9F82B462A462946EF
:10107000206803F0BDFB4FF0FF31206803F06CFDEA
:10108000AF4804AE09F0DAF82B462A462946206814
:1010900003F0AEFB4FF0FF31206846F8049D03F0EB
:1010A0005BFDA84809F0CAF82B462A462946206865
:1010B00003F09EFB012003F029F80221024630468E
:1010C000FFF75EFF404602F03DFA284603F01EF8A7
:1010D000022102463046FFF753FF4FF0FF312068F0
:1010E00003F03AFD984809F0A9F82B462A4629460C
:1010F000206803F07DFB012002F0FCFF092102467D
:101100003046FFF73DFF404602F01CFA284602F049
:10111000F1FF514602463046FFF732FF4FF0FF31F4
:10112000206803F019FD894809F088F82B462A4603
:101130002946206803F05CFB012002F0F5FF09213D
:1011400002463046FFF71CFF404602F0FBF92846F6
:1011500002F0EAFF514602463046FFF711FF02F067
:1011600009FF594602463046FFF70AFF02F0A2FF88
:101170000B2102463046FFF703FF02F0E1FF39463C
:1011800002463046FFF7FCFE02F0DCFF394602461D
:101190003046FFF7F5FE02F065FC042102463046BA
:1011A000FFF7EEFE02F0D8FF394602463046FFF761
:1011B000E7FE02F0DFFC082102463046FFF7E0FEC2
:1011C00002F064FD02F0BEFD002800F0CF800A208E
:1011D00002F028FD02F0B0FD0546002840F0CA806C
:1011E0004FF47A7002F0AEF9284602F0FDFB4FF0A2
:1011F000FF31206803F0B0FC554809F01FF82B467A
:101200002A462946534D206803F0F2FA0221286845
:1012100004F001FC642002F095F90121286804F033
:10122000FAFB642002F08EF90421286804F0F3FB35
:10123000642002F087F92E4602F098FF002800F0A3
:101240009D804FF0FF31206803F086FC424808F093
:10125000F5FF00231A461946206803F0C9FA072152
:10126000286804F0B5FB4FF0FF31206803F074FCF0
:101270003A4808F0E3FF00231A461946206803F0B5
:10128000B7FAC825009501231A467021306804F08A
:1012900015FB00F070007028F4D14FF0FF3120688A
:1012A00003F05AFC2E4808F0C9FF00231A461946DD
:1012B000206803F09DFA4FF0FF31206803F04CFCEA
:1012C000284808F0BBFF00231A461946206803F09F
:1012D0008FFA002002F056FF4FF0FF31206803F034
:1012E0003BFC214808F0AAFF00231A461946206853
:1012F00003F07EFA57E6C82002F024F962E600BF48
:10130000208F00203EAD000861AD00081E020020C5
:101310001C0200202A0200203002002022020020AD
:1013200024020020260200202E0200202C02002091
:1013300020020020280200207CAD000893AD0008A8
:10134000A7AD0008B9AD0008C4AD0008D2AD0008D3
:10135000DFAD0008248F002013AE000847AE000860
:1013600086AE0008B9AE0008DBAE00080A2002F025
:10137000E9F827E70A2002F0E5F82BE7142002F04D
:10138000E1F859E71A4BDFED1B7A1B881A4A06EE83
:10139000103A1A4B1B8807EE103A194B1B88F8EECF
:1013A000476A07EE103AB8EE477AB8EE466A26EE7C
:1013B000877A27EE277AC6EE077AB7EE007A77EEBD
:1013C000C77AB2EE047A67EE877AF4EEC07AF1EE6D
:1013D00010FA98BFB0EE670ABCEEC00A10EE103AE1
:1013E0009BB207EE903A1380B8EE670A704700BFD1
:1013F000300200206F12833A1C0200201E020020DF
:101400002A020020BCEEC00A044A10EE103A9BB239
:1014100007EE903A1380B8EE670A70472202002068
:10142000BCEEC00A044A10EE103A9BB207EE903AA6
:101430001380B8EE670A704724020020BCEEC00A91
:10144000044A10EE103A9BB207EE903A1380B8EEC1
:10145000670A704726020020BCEEC00A044A10EE5C
:10146000103A9BB207EE903A1380B8EE670A7047C5
:101470002E020020BCEEC00A044A10EE103A9BB2C5
:1014800007EE903A1380B8EE670A70472C020020EE
:10149000BCEEC00A044A10EE103A9BB207EE903A36
:1014A0001380B8EE670A704720020020BCEEC00A25
:1014B000044A10EE103A9BB207EE903A1380B8EE51
:1014C000670A704728020020034B1B8800EE103A81
:1014D000B8EE400A704700BF1E020020034B1B8875
:1014E00000EE103AB8EE400A704700BF2A02002012
:1014F000034B1B8800EE103AB8EE400A704700BF5D
:1015000030020020054BDFED067A1B8800EE103A12
:10151000B8EEC00A20EE270A704700BF1C02002068
:10152000CDCCCC3D08B5F0EE406AFFF7EBFF134B96
:101530009FED136A1B88134A07EE103A124B1B8863
:1015400007EE903AF8EE677AB8EE477A67EE867A59
:1015500040EE277A87EE270AB4EEE60AF1EE10FA9B
:1015600088BFB0EE660ABCEEC00A10EE103A9BB21D
:1015700007EE903A1380B8EE670A08BD30020020EB
:101580006F12833A1E0200202A02002008B5FFF7DE
:10159000B9FF144BDFED146A1B8807EE103AB8EE62
:1015A000477AC6EE877AFCEEE77A17EE900AF7EEF6
:1015B000007A70EE277A80EE270A07EE900AF8EE9E
:1015C000677A20EE270AFCEEC07A17EE903A834243
:1015D00005D9064B064A0748582108F0F7FAC01A01
:1015E00008BD00BF1E02002000606A47FBAE000875
:1015F00028AD00080AAF000808B52DED028BB0EE4B
:10160000408AFFF7C3FF134B9FED130A1B88134A51
:1016100007EE903A07EE100AF8EE677A67EE807AE6
:10162000B8EE470A67EE807AF4EEC87AF1EE10FA67
:101630008CBFB0EE480AB0EE670ABCEEC00ABDEC43
:10164000028B10EE103A9BB207EE903A1380B8EE80
:10165000670A08BD300200208988883C2A020020E1
:1016600008B52DED028BB0EE408AFFF78FFF134BCC
:10167000DFED137A1B88134A07EE103AB8EE477A6B
:1016800027EE277A07EE900AF8EE676AC7EE267A09
:10169000F4EEC87AF1EE10FAB4BFB0EE480AB0EE3C
:1016A000670ABCEEC00ABDEC028B10EE103A9BB28A
:1016B00007EE903A1380B8EE670A08BD2A020020B0
:1016C0000000704230020020034B1B8800EE103AED
:1016D000B8EE400A704700BF22020020034B1B886F
:1016E00000EE103AB8EE400A704700BF2402002016
:1016F000034B1B8800EE103AB8EE400A704700BF5B
:1017000026020020034B1B8800EE103AB8EE400A78
:10171000704700BF2E020020034B1B8800EE103ADA
:10172000B8EE400A704700BF2C020020034B1B8814
:1017300000EE103AB8EE400A704700BF20020020C9
:10174000034B1B8800EE103AB8EE400A704700BF0A
:101750002802002010B5044604F034FB01F0F0FE2E
:10176000034B1860034B1C8004F04EFB204610BD59
:10177000180200201402002010B5044604F022FBD9
:1017800001F0DEFE034B1860034B1C8004F03CFBB1
:10179000204610BD100200200C02002010B50446A7
:1017A00004F010FB01F0CCFE034B1860034B1C80CF
:1017B00004F02AFB204610BD08020020040200208D
:1017C0007047000037B50E4D2C464FF0FF330093A5
:1017D000002201230221286804F070F84FF4FA7007
:1017E00001F0B0FE0021206804F0F2F88307F5D480
:1017F000C82001F0A7FE2021206804F00CF9E4E7DE
:10180000248F002038B52F4C207001F099FE2378EA
:10181000032B55D8DFE803F0021F30432A4C01F0B8
:101820008FFE4FF0FF31206803F096F9274808F04B
:1018300005FD002320681A46194602F0D9FF01244D
:10184000234D0F21286804F0C3F821462868BDE81D
:10185000384004F0E0B81C4C4FF0FF31206803F032
:101860007BF91C4808F0EAFC002320681A46194658
:1018700002F0BEFF0224E3E7134C02F015FC4FF028
:10188000FF31206803F068F9134808F0D7FC002303
:1018900020681A46194602F0ABFF0424D0E70A4C30
:1018A0004FF0FF31206803F057F90C4808F0C6FCF0
:1018B000002320681A46194602F09AFF0824BFE761
:1018C0000024BDE7CC270020208F002051B1000864
:1018D000148F002064B1000873B1000885B10008BE
:1018E0002DE9F04F2DED048BD54CADF2144D4FF09A
:1018F000FF31206803F030F9D24808F09FFC002344
:101900001A461946206802F073FF4FF0FF36CE48A2
:101910000096012319460022006803F0CFFF3146EC
:10192000206803F019F9C94808F088FC00231A461A
:101930001946206802F05CFF012002F055F8C44B04
:1019400000251D60C34B1D60C34B1D60C34B1D6054
:10195000C34B1D60C34B40F6C4101D6001F0F2FD87
:101960003146206803F0F8F801F0EAFD0146BE4870
:1019700008F064FC00231A461946206802F038FF7C
:101980003146206803F0E8F801F0DAFD0146B64878
:1019900008F054FC00231A461946206802F028FF7C
:1019A0003146206803F0D8F801F0CAFD0146AE4880
:1019B00008F044FC00231A461946206802F018FF7C
:1019C0003146206803F0C8F801F0BAFD0146A64888
:1019D00008F034FC00231A461946206802F008FF7C
:1019E0003146206803F0B8F801F0AAFD01469E4890
:1019F00008F024FC00231A461946206802F0F8FE7D
:101A00003146206803F0A8F801F09AFD0146974896
:101A100008F014FC00231A461946206802F0E8FE7C
:101A20000DF5826144AB00229D60C3E900220C33B6
:101A30008B42F9D19FED7E0B08F058F851EC100B5A
:101A4000FFF724F89FED7A9B03904FF4805B4FF0F3
:101A5000FF312068DFF830A203F07EF84FF48C519C
:101A6000834808F0EBFB00231A461946206802F071
:101A7000BFFE4FF0FF31206803F06EF840217D4833
:101A800008F0DCFB00231A461946206802F0B0FE7D
:101A90004FF0FF31206803F05FF8B0EE490AF0EE36
:101AA000690A08F023F851EC100BFEF7EFFF01462E
:101AB000714808F0C3FB00231A461946206802F05B
:101AC00097FE4FF0FF31206803F046F84FF4805145
:101AD0006A4808F0B3FB00231A461946206802F052
:101AE00087FE4FF0FF31206803F036F8594664480E
:101AF00008F0A4FB00231A461946206802F078FE7D
:101B00000020FFF77FFE0025A9464FF48066A84617
:101B1000B34580F0FE80A6EB0B03B3F5807F40F267
:101B2000F880A6F580762AF81560B044F5B1039BDD
:101B300095FBF3F703FB1757C7B94FF0FF31206848
:101B400003F00AF8424649464E4808F077FB3B4608
:101B50003A463946206802F04BFE0C2344AA03FBA8
:101B6000092309F10109C3F80480B846013541F29F
:101B700081139D42CCD14FF48C51434801F03CFF7E
:101B800001F0DEFC4FF47A7A0AFB00FAD1460546F2
:101B90004FF0000A002304AA002142F82310013369
:101BA000402BF9D144AE0F46736819EB03094AF193
:101BB000000A01F0C5FC4FF47A72002380465146BA
:101BC0004846FEF7FBFFA0EB0808404601F0BAFCD0
:101BD00004AB43F8278002F05BFAB0EE408A01F0D4
:101BE000AFFC804618EE100AFEF75EFC41EC100BCD
:101BF00007F072FF10A3D3E9002351EC100BFEF79E
:101C00003BFF002846D0A8EB050507EE905AB8EE3A
:101C1000677ADFED1E7A336828EE278AD6ED027ADE
:101C2000E7EE087A0133336032E000BFAFF30080A3
:101C300000000000008051407B14AE47E17A843FF1
:101C4000208F002045AF0008248F002054AF0008EB
:101C50003402002038020020480200204002002008
:101C6000440200203C02002063AF00088EAF000851
:101C7000B2AF0008E4AF00081BB000085BB000087A
:101C800091B00008C7B000084C02002065CF8B3728
:101C9000C6ED027A0137402F06F10C06454683D186
:101CA0000220FFF7AFFD01F0E1FD284E00254FF0C7
:101CB000FF31206802F050FF04AB294653F825207D
:101CC000304608F0BBFA00231A4619462068013551
:101CD00002F08EFD402DEAD101F01EFE0028FBD05F
:101CE000ABF5007BBBF5006F7FF4B1AE9FED188ABA
:101CF000184E194F46AC002554F8083C5BB92946EC
:101D00003846013508F09AFA402D04F10C04F3D15D
:101D1000FEE75E4607E707EE903AD4ED006AF8EE7C
:101D2000E77A86EEA77A67EE087A84ED007A17EEF6
:101D3000900AFEF7B9FB41EC100B07F0D7FE51EC0F
:101D4000100BFEF7A3FE01463046DAE7E6B00008C6
:101D5000002474494CB1000805B10008014B93ED13
:101D6000000A704734020020014B93ED000A7047CF
:101D700038020020014B93ED000A70474802002012
:101D8000014B93ED000A704740020020014B93ED98
:101D9000000A704740020020014B93ED000A704793
:101DA00044020020014B93ED000A70473C020020E2
:101DB0002DE9F0412DED068B82B03C4D01F0C0FCC9
:101DC0002C464FF0FF330022042100932868384F3F
:101DD000012303F073FD49F6404001F0B3FB00F02E
:101DE00069F800F005FA01F0ABFB4FF00508064674
:101DF00000F09EFB01F0A4FB801B182814D902F010
:101E00004DF9B0EE408A02F043F9F0EE408A02F05C
:101E10004BF9F0EE680AB0EE401AB0EE480A00F056
:101E20008FF801F08DFB0646CDF8008001231A469D
:101E30008021386803F042FD020729D5FFF78EFFA5
:101E4000B0EE408AFFF790FFF0EE408AFFF792FF76
:101E5000B0EE409AFFF794FFF0EE409AFFF796FF3E
:101E6000B0EE40AAFFF798FFF0EE40AAFFF79AFF06
:101E7000F0EE6A2AB0EE403AB0EE4A2AF0EE691A65
:101E8000B0EE491AF0EE680AB0EE480A00F0CAF85F
:101E90000021206803F09CFD4307A9D4C82001F06D
:101EA00051FB4021206803F0B6FD8AE7248F002013
:101EB000148F0020004870474C29002010B50446BC
:101EC000FEF7FCFF224603380023111B884201D88D
:101ED000D8B210BD12F8011B0B44F6E7F8B507465F
:101EE000084614461E46FEF7CDFA41EC100B07F0EB
:101EF000F3FD51EC100BFEF7C9FD2E2105463846C7
:101F000008F0B4F928B10A490219131A002B06DCAB
:101F1000F8BD084B084A09482E2107F057FE95FBEB
:101F2000F6F306FB13554C5D02F8014D1D46ECE738
:101F300050B2000861B2000837B2000866B200086B
:101F400010B53B222DED048B33493448F0EE608A06
:101F5000B0EE419AB0EE408A08F0A7F901F0F0FA2D
:101F60002F49B0FBF1F40A2304FB110106222B4890
:101F7000FFF7B4FFB0EE490A07F002FEFDEEC07AAB
:101F8000042217EE901A0A232448FFF7A7FF2E21F8
:101F9000224808F06BF9FDEEE87AB0EE680A17EE19
:101FA000903A002BB4BF2D232B23037007F0E8FDDC
:101FB000FDEEC07A032217EE901A0A231748FFF7A6
:101FC0008DFF2E21154808F051F9FDEEC87AB0EECC
:101FD000480A17EE903A002BB4BF2D232B23037031
:101FE00007F0CEFDFDEEC07A0A2317EE901A032209
:101FF0000A48FFF773FF0948FFF760FF1023014607
:1020000002220648FFF76AFFBDEC048B0348BDE8D7
:10201000104001F0E1BB00BF98B10008D0270020BC
:1020200040420F0008B54E222DED088B4549464829
:10203000B0EE618AF0EE60AAB0EE41AAF0EE429AEC
:10204000B0EE629AF0EE438AB0EE40BA08F02DF995
:10205000B2EE040A2BEE000A07F092FDFDEEC07A04
:102060000A2317EE901A02223748FFF737FFB0EE27
:102070006A0A07F085FDFDEEC07A0A2317EE901A72
:1020800002223148FFF72AFFB0EE4A0A07F078FD36
:10209000FDEEC07A0A2317EE901A03222A48FFF7B2
:1020A0001DFFB0EE690A07F06BFDFDEEC07A02225B
:1020B00017EE901A0A232448FFF710FF2E2122481A
:1020C00008F0D4F8FDEEC87AB0EE480A17EE903A60
:1020D000002BB4BF2D232B23037007F051FDFDEE21
:1020E000C07A0A2317EE901A02221748FFF7F6FE6D
:1020F000B0EE490A07F044FDFDEEC07A0A2317EE60
:10210000901A02221048FFF7E9FEB0EE680A07F0C5
:1021100037FDFDEEC07A0A2317EE901A02220A4814
:10212000FFF7DCFE0848FFF7C9FE10230146022234
:102130000548FFF7D3FEBDEC088B0348BDE8084017
:1021400001F04ABBD4B100087428002004292DE90D
:10215000F04180460E4617463DDCFEF7AFFE0628EE
:1021600039D105221D491E4808F09FF81C4900235B
:10217000721D2E2093422ADD1A4C1B49B51D2544A1
:102180000522284608F091F803221849681D08F036
:102190008CF800232B722E21601F08F067F841464F
:1021A000062207F071FD324639460A23601FFFF709
:1021B00095FE601FFFF782FE102301460222601F7A
:1021C000FFF78CFE601FBDE8F04101F005BBCC18A5
:1021D00001336071CEE70020BDE8F081F5B2000860
:1021E000C4280020C9280020FBB20008B5B30008AD
:1021F00038B505222DED048B054681498148824C76
:1022000008F053F82846FEF759FE294602462046B4
:1022100007F03AFD2846FEF751FE251805227B49B6
:10222000284608F042F803227949681D08F03DF875
:1022300000232B72601FFFF741FE1023014602228C
:10224000601FFFF74BFE601F01F0C6FA28B900209F
:10225000BDEC048B00F0010038BDFFF73FF9FDEE47
:10226000C07A032117EE902A6A48FFF76FFF002813
:10227000EDD0FFF729F9FDEEC07A022117EE902A82
:102280006548FFF763FF0028E1D0FFF71DFAFDEE78
:10229000C07A022117EE902A6048FFF757FF002806
:1022A000D5D0FFF725F9FDEEC07A022117EE902A6E
:1022B0005B48FFF74BFF0028C9D0FFF723F9F2EE88
:1022C000047A20EE270A0221FDEEC07A554817EE67
:1022D000902AFFF73BFF0028B9D0FFF7FFF8F0EE98
:1022E000409AFFF705F9B0EE408AFFF70BF9B0EE20
:1022F000409AFFF7E9F8DFED4C8AF7EE007A79EEC5
:10230000277A88EE800A89EE277ADFED487A28EE70
:10231000278ABCEEC00AC9EE887AB8EE400AFCEE05
:10232000E77A20EE070A17EE904ABCEEC00A10EEDC
:10233000103A23441C46FFF7C7F888EE800AFCEEEB
:10234000C07A17EE902A944205D9394B394A3A4857
:10235000622107F03BFC121B04213848FFF7F6FE10
:1023600000283FF474AFFFF7CDF9FDEEC07A0421E9
:1023700017EE902A3248FFF7E9FE00283FF467AFD6
:10238000FFF7CAF9FDEEC07A042117EE902A2D4816
:10239000FFF7DCFE00283FF45AAFFFF79FF9FDEE90
:1023A000C07A032117EE902A2748FFF7CFFE0028B6
:1023B0003FF44DAFFFF79CF9FDEEC07A032117EE15
:1023C000902A2248FFF7C2FE00283FF440AFFFF7F3
:1023D000ADF9FDEEC07A022117EE902A1C48FFF7F6
:1023E000B5FE00283FF433AFFFF7AAF9FDEEC07A3F
:1023F000042117EE902A1748FFF7A8FE28E700BF30
:102400009BB200080C28002011280020FBB2000815
:10241000B5B30008A1B20008A8B20008AFB2000826
:10242000B6B20008BDB2000800606A478988883CDF
:10243000FBAE000822B200080AAF0008C4B20008D0
:10244000CBB20008D2B20008D9B20008E0B200084E
:10245000E7B20008EEB200082DE9F041D0F80080A4
:10246000069F0546104614461E46FEF727FD2146E8
:102470000246404607F007FF00BB2046FEF71EFD60
:102480002B681844286007F0BFFB83B200EE103AB7
:1024900067B9F8EEC07AFCEEE77A17EE903A31466B
:1024A00020469AB2BDE8F041FFF750BEB8EE400AB0
:1024B000B847BCEEC00A10EE103AF0E70020BDE8C5
:1024C000F0812DE9F041D0F80080069E05461046C7
:1024D00014461F46FEF7F2FC21460246404607F02E
:1024E000D2FE88B92046FEF7E9FC2B681844286024
:1024F00007F08AFB80B206B1B04702463946204653
:10250000BDE8F041FFF722BE0020BDE8F08170B5C4
:10251000044608460E46FEF7D1FC31460546024603
:10252000204607F0B0FE08B9601970BD0020FCE736
:102530002DE9FF41984E994F35463378012B3CD019
:102540002B78022B07D19649964807F0C3FE044624
:10255000002841D128702C78002C53D10123914AB6
:102560002B702346A3540134652CFBD18B4A136096
:1025700004B0BDE8F0811F2C04DC092C26D0002318
:102580002B7023E07E2CFADC20E0864ADFF8A48260
:10259000D4544FF0FF310133D8F800003B6002F013
:1025A000DBFA2146804807F049FE00231A46194607
:1025B000D8F8000002F01CF9BFE701F017F9431C3E
:1025C0000446BDD00A2CD6D1022333703B68642B5D
:1025D000DBDD00232B70B0E710220021053007F06F
:1025E0000FFF06466F48FFF769FCB04218BF002393
:1025F0006B4818BF2B70FEF761FC2044002300F8E5
:10260000013CA8E7022CB3D168496648654EDFF863
:102610002882FFF77CFF0746039010B998F8003036
:102620007BB96348FFF7E4FD88F8000001232B70B5
:1026300000231A46F2540133652BFBD1574B1A6025
:1026400096E75C493046FFF762FF0390002878D098
:10265000594B0093594A0323394603A8FFF7FCFE60
:102660000028E3D1564B0093564A2346012103A884
:10267000FFF7F2FE0028D9D1534B0093534A23466B
:10268000214603A8FFF7E8FE0028CFD1504B009366
:10269000504A2346032103A8FFF7DEFE0028C5D1D8
:1026A0004D4B00934D4A2346042103A8FFF7D4FE67
:1026B0000028BBD100230093494A04234FF0FF3187
:1026C00003A8FFF7C9FE0028B0D1464B0093464A45
:1026D0000423052103A8FFF7BFFE0028A6D1434B22
:1026E0000093434A0423062103A8FFF7B5FE002800
:1026F0009CD1404B0093404A0323072103A8FFF7D6
:10270000ABFE002892D13D4B00933D4A03230821A4
:1027100003A8FFF7A1FE002888D13A4B00933A4A5C
:102720000223092103A8FFF797FE00287FF47EAF5C
:10273000364B0093364A04230A2103A8FFF78CFE88
:1027400074E734493046FFF7E2FE039048B1324B5C
:102750000093324A05234FF0FF3103A8FFF7B1FE83
:1027600064E72F493046FFF7D2FE039008B12D4BA6
:10277000EEE72D493046FFF7CAFE039008B12B4B18
:10278000E6E72B493046FFF7C2FE039000283FF4EE
:102790004DAFFFF715F849E7010000204829002058
:1027A000FBB20008E028002001B300089BB200083B
:1027B0004C290020F5B20008F9150008A1B2000864
:1027C00025150008A8B2000861160008B6B2000876
:1027D00085130008BDB2000805140008AFB2000858
:1027E000C4B2000859140008CBB2000875140008E0
:1027F000D2B2000821140008D9B200083D14000824
:10280000E0B2000891140008E7B20008AD14000817
:10281000EEB2000806B3000855170008B8B3000868
:102820000CB300087917000812B300089D170008C0
:1028300018B30008208F00200000002007B500F02A
:1028400079F800B9FEE703220021012001F0A9FF79
:10285000284B186000231A46194601F0C9FF264884
:1028600007F0ECFC03F01CF8244B186003F018F898
:10287000234B24491860244B0193282300934FF4E1
:1028800080620023214802F0F4FB012801D000F00F
:10289000E9FD1F4B0193292300934FF4407200235D
:1028A0001C491D4802F0E5FB012801D000F0DAFDCB
:1028B0001A4B0193182300934FF4407200231849D8
:1028C000184802F0D6FB012801D000F0CBFD164BD2
:1028D0000193102300934FF480620023134914489E
:1028E00002F0C7FB012801D000F0BCFD02F0EEFBB6
:1028F000FEE700BF208F00201EB30008248F0020B9
:10290000148F002030B30008108F0020E118000859
:102910001C8F00203AB30008C5170008288F00203C
:1029200045B300089D0F0008188F002050B3000821
:10293000B11D00082DE9F04FAFB007F095F84FF04A
:102940001409242200210FA807F0A9F94A46002102
:1029500009A807F0A4F95822002118A807F09FF948
:102960004FF00208012610274FF4004B4FF4E013FC
:102970000EA8CDF83880CDE91167CDF85080CDE9AB
:1029800015B305F085F808B1002072E24FF4806AB3
:102990000F230B90CDE90CA0414609A8CDE90938D9
:1029A00005F03EFB0028EFD1CA4B1B901F90CDE9EC
:1029B000260018A8189304F027FF04460028E3D146
:1029C000C54D4A46014618A807F069F96B69C34826
:1029D00043F400236B616B6903F400230293029BB1
:1029E0006B6943F480036B616B6903F480030393A9
:1029F000039B6B6943F400336B616B6903F4003331
:102A00000493049B6B6943F480236B616B6903F44B
:102A100080230593059B6B6943F480136B616B699D
:102A200003F480130693224641F2E111069B03F062
:102A300089FD22464FF47C714FF0904003F082FDF7
:102A4000224646F60141A64803F07CFD32460421A9
:102A5000A34803F077FD22460421A24803F072FD4B
:102A6000A14B9E481A944FF40051CDE9181318A9B0
:102A700003F092FC41F2E11318A99848CDE9183609
:102A8000CDE91A4403F088FC18A994481A96CDE9B8
:102A9000189403F081FC954B904801934FF008097E
:102AA00018A9CDE918931A9403F076FC4FF47C72C0
:102AB00018A94FF09040CDE91826CDE91A4403F04B
:102AC0006BFC46F6054218A98548CDE91826CDE9E4
:102AD0001A4403F061FC18A981481A94CDE91884BE
:102AE00003F05AFC202218A97D481A94CDE9182435
:102AF00003F052FC802218A979481A94CDE91824D1
:102B000003F04AFC18A976481A94CDE918B403F0EA
:102B100043FC019B4FF4C05218A94FF0904018920B
:102B2000CDE9193403F038FC18A94FF09040CDE9F5
:102B300018A41A9403F030FC042318A96948CDE9BD
:102B40001836CDE91A4403F027FC22460521072058
:102B500003F0CEFA072003F0FFFA2246052148468B
:102B600003F0C6FA484603F0F7FA42460521092069
:102B700003F0BEFA092003F0EFFA224605210A20ED
:102B800003F0B6FA0A2003F0E7FA224605211720DF
:102B900003F0AEFA172003F0DFFA424605212820A1
:102BA00003F0A6FA282003F0D7FA6B6943F001037B
:102BB0006B616B6903F001030793079B6B6943F03B
:102BC00002036B616B69052203F00203114608934F
:102BD0000C20089B03F08CFA0C2003F0BDFA32465F
:102BE00005210D2003F084FA0D2003F0B5FA4246CA
:102BF0000521384603F07CFA384603F0ADFA424628
:102C00000521112003F074FA112003F0A5FA3246D1
:102C100005213A2003F06CFA3A2003F09DFA32467F
:102C200005213C2003F064FA3C2003F095FA30487B
:102C3000304B04614FF4E1380C25C0E90038C0E99D
:102C40000244C0E90554C0E90744446206F0D0FEDE
:102C500000287FF499AE284B284AC3E90200C3E953
:102C60000405C3E90600C3E908001846C3E90028C3
:102C700006F0BEFE00287FF487AE214C214A206278
:102C800040F20B23C4E90206C4E90400C4E90600CB
:102C90002046C4E9002304F077FA014600287FF4B7
:102CA00073AE204603F060FC014600287FF46CAE52
:102CB000204603F07FFC044600287FF465AE014601
:102CC0003A460EA806F0EBFF0F4D104E0B941C2257
:102CD00021461DE02200300000100240000800489C
:102CE00000040048000C00480000211000003110D2
:102CF0000893002000440040AC910020004C0040AC
:102D0000B48F002000540040589200200C00002096
:102D100018A8CDE9094406F0C2FF4FF080432B60AC
:102D2000554A3368B3FBF2F32846013BC5E9013449
:102D3000C5E90344AC6106F0AFF900287FF424AE86
:102D40004FF480530EA928460E9305F0D9FF0028B2
:102D50007FF41AAE284606F0C3F900287FF414AEBB
:102D600009900B9009A9284605F062FA024600284E
:102D70007FF40AAE4FF0600814231A901C900DEBFC
:102D800008012846CDE9188305F02AFF05460028EA
:102D90007FF4FAAD39483A4C374F00F079FA1022F7
:102DA00029460EA806F07BFF1C2229460DEB0800E1
:102DB000CDE909550B9506F072FF324B2360204692
:102DC0003368B3FBF7F3013BC4E90135C4E90355AC
:102DD000A56106F061F900287FF4D6AD4FF4805369
:102DE0000EA920460E9305F08BFF00287FF4CCAD92
:102DF000204606F075F900287FF4C6AD09900B90C7
:102E000009A9204605F014FA00287FF4BDAD0A2375
:102E1000CDE919301C900C2218A92046CDF860800D
:102E200005F0DEFE054600287FF4AEAD2046164CC8
:102E300000F02EFA154B23603368B3FBF7F3013B28
:102E4000C4E9013520464FF6FF73CDE918551A95B0
:102E5000E360A56106F020F900287FF495AD189095
:102E60001A9018A9204605F0E3F900287FF48CADEC
:102E700001202FB0BDE8F08F40420F005892002093
:102E80007490002000040040B4930020001400401F
:102E90007047704770477047202808B52BD00CD872
:102EA00004282BD002D8022822D008BD08281CD024
:102EB0001028FAD1FFF7ECFFF7E7B0F5806F11D0DB
:102EC00004D88028F1D1FFF7E6FFEEE7B0F5006FF8
:102ED00005D0B0F5805FE8D100F048FDE5E700F0EF
:102EE00021FDE2E700F066FDDFE700F031FFDCE7FF
:102EF00000F052FFD9E7FFF7CCFFD6E7FFF7CAFF94
:102F0000D3E7704707B502A94FF6FF7341F8040DE8
:102F10000122034806F0E4FC019803B05DF804FBCD
:102F2000089300200120704708B506F071FE1623B3
:102F300003604FF0FF3008BD08B506F069FE1623A8
:102F40000360FEE770B50E4615460C46A31B9D4276
:102F500001DC284670BDAFF3008004F8010BF5E7F3
:102F600070B50E4615460C46A31B9D4201DC284653
:102F700070BD14F8010BFFF7C5FFF5E74FF0FF3008
:102F800070474FF400534B6000207047012070479A
:102F90000020704708B50A4B1968024609B909496B
:102FA00019601868694602448A4206D906F030FE64
:102FB0000C2303604FF0FF3008BD1A60FCE700BF30
:102FC000A0290020A895002006F060BD10B501469C
:102FD00088B00022192003F08BF8192003F0BCF808
:102FE000174B184C9A6942F400329A619B6903F4BA
:102FF0000033029301A903A8029B05F0EDF805F048
:10300000D3F8114B236040F2E733E3600F4BB0FB82
:10301000F3F001380023606020462361A36006F0CE
:103020003BF810B1012008B010BD094A0E2120461E
:1030300005F0A0FC0028F5D1204605F02DFBF2E7B5
:1030400000100240A89400200044014040420F00BC
:10305000C92F0008014805F035BB00BFA894002027
:103060000D4B9A6942F001029A619A6982B002F0AE
:1030700001020092009ADA6942F08052DA61DB695B
:1030800003F080530193019B00220F216FF0010098
:1030900002B003F02DB800BF0010024030B5054665
:1030A00089B01422002103A806F0F9FD2A68304BEC
:1030B0009A425AD12F4C636943F480236361636958
:1030C00003F480230193019B4FF440711223CDE957
:1030D000031301200323CDE9050303A90423264894
:1030E000079303F059F9E369DFF89CC043F4001338
:1030F000E361E369214C03F400130293029B8022F5
:1031000000232046C4E900C3A360C4E90323C4E943
:103110000533E36103F050F808B1FFF7F2FE184AF7
:10312000EC636562174C0023C4E90023204680222B
:10313000A360C4E90323C4E90533E36103F03CF869
:1031400008B1FFF7DEFE002205211F20AC63656297
:1031500002F0CEFF1F2002F0FFFF202000220521F9
:1031600002F0C6FF202002F0F7FF09B030BD00BF1B
:103170000054004000100240000400482491002048
:103180006C000240708F00208000024030B5036860
:10319000B3F1804F85B0054630D103F50433354C8B
:1031A000DA69354842F00102DA61DB6903F00103B4
:1031B0000193019B1023C4E9000380220023C4E98A
:1031C00002324FF4007C4FF48062A36120464FF43A
:1031D0000053C4E904C2E36102F0EEFF08B1FFF757
:1031E00090FE05222C621C201146656202F080FFD1
:1031F0001C2005B0BDE8304002F0AEBF1F4A93422C
:1032000029D11F4B1F4CDA6942F00202DA61DB69F7
:103210001D4A03F002030293029B0023C4E900232A
:1032200080214FF48072C4E9031220464FF480627B
:10323000A360C4E90523E36102F0BEFF08B1FFF714
:1032400060FE65621D202C632C620022052102F0C5
:103250004FFF1D20CDE70D4A934209D1084BDA6993
:1032600042F02002DA61DB6903F020030393039B41
:1032700005B030BD309000201C000240000400402A
:10328000001002406891002030000240001400400D
:1032900010B5044688B01422002103A806F0FFFCF4
:1032A0002368B3F1804F18D103F504334FF4004184
:1032B0005A6942F400325A615B6903F400330193A6
:1032C000019B0223CDE903130123079303A94FF0C8
:1032D000904003F061F808B010BD0B4A9342FAD158
:1032E0000A4B0B485A6942F400225A615B6903F4A5
:1032F00000230293029B4FF400720223CDE90323C3
:10330000079303A9E5E700BF000400400010024056
:103310000008004830B514228BB0054600210DEBA3
:10332000020006F0BCFC2B68454A93425ED1454B37
:10333000DA6942F40022DA61DA6902F400220192C9
:10334000019A5A6942F400225A615B6903F400232E
:103350000293029B4FF440600223CDE9050303244E
:103360000523394805A9CDE9084303F015F8374C82
:10337000DFF8E8C000238022C4E900C3A360C4E9E9
:10338000032363614FF0200E4FF400532046C4E93D
:1033900006E302F011FF08B1FFF7B3FDEC666562CA
:1033A0002B492C4C1023C4E9001380220023204613
:1033B000C4E90232C4E90433C4E9063302F0FCFE76
:1033C00008B1FFF79EFD022205213A20AC66656236
:1033D00002F08EFE012205213C2002F089FE01222E
:1033E0000521342002F084FE0BB030BD1A4A93420E
:1033F000FAD1144BDA6942F40032DA61DA6902F484
:1034000000320392039A5A6942F400325A615B69AE
:1034100003F400330493049B0C220223CDE905231B
:1034200005A907234FF09040099302F0B5FF002251
:103430000521262002F05CFE262002F08DFED3E757
:10344000004C004000100240000800482C8F002073
:1034500058040240649400200044004030040240BC
:103460007047000008B501224FF48071014803F055
:1034700069F8FEE700080048FEE7FEE7FEE7704750
:10348000022003F065B8042003F062B8082003F0BE
:103490005FB8102003F05CB8014802F035BF00BFF0
:1034A00030900020014802F02FBF00BF689100203B
:1034B000014802F029BF00BF2491002008B5202058
:1034C00003F046F88020BDE8084003F041B8000052
:1034D000014805F0F7B800BF58920020014805F0F8
:1034E000F1B800BF74900020014804F054B900BF47
:1034F000B48F0020014804F055B900BFB48F0020FC
:1035000008B54FF4806003F023F84FF4006003F037
:103510001FF84FF4805003F01BF84FF40050BDE843
:10352000084003F015B80000014802F0EDBE00BFEE
:103530002C8F0020014802F0E7BE00BF64940020F9
:1035400001F010BE10B5044602F0AAF830B12046D2
:1035500001F012FFBDE8104001F004BE204606F065
:10356000A7FAF7E7244B1B685968F0B589B272B621
:10357000012805D1B1F5007F02D162B60120F0BD6E
:103580001E4C2388B3F5007F2CD2C3F500720128AE
:1035900092B22AD15B1A9BB221801949194FD1E905
:1035A00001450020561B134440F2FF3C721992B2B1
:1035B0009A4209DB0028E0D0C1E90145DDE7C1F509
:1035C00000739BB20022E7E7C2F3080208196445C2
:1035D00017F802E080F80CE014BF01340024013534
:1035E0000120E3E70128EAD00022C2F500739BB274
:1035F0004FF40071D0E700BF2C8F002002000020A4
:10360000A42D0020A42900200220FFF7ABBF7047A3
:10361000F8B51B4CA3680BB90120F8BD194805F09B
:1036200089FF2128F8D0174805F084FF2328F3D01C
:10363000A0682368144F82B2B2F5007F4FF00001FA
:1036400028BF4FF400720D4640F6FF7C8EB2B242A6
:103650000BD8801A0DB12360A0600B49094805F012
:1036600039FEB0FA80F04009D7E7E51863452D7BB5
:10367000CD5514BF0133002301310125E6E700BF1A
:10368000B0310020AC910020A42B0020FFF7C0BF78
:10369000154B84469868F0B580B172B600241A685C
:1036A0009E68254640F2FF3EA642A6EB0407A0B264
:1036B00012D115B11A6000229A6062B6F0BD72454F
:1036C00018BF571C1A4408BF0027127B0CF80420AF
:1036D000012501343A46E7E78842F0D3002DECD0CB
:1036E0001A609F60E9E700BFA42D0020F8B572B60C
:1036F000124BD3E9014600273246801B40F6FF7C7F
:10370000951BADB2A94206D80FB1C3E90142FFF73C
:103710007FFF62B611E01D19875C2F73644502F1CB
:10372000010214BF01340024B2F5805F4FF001079D
:10373000E6D1C3E9014262B60020F8BDB0310020F5
:1037400038B51E4B1E4D1F4A0024C3E900449C603F
:103750001D4B03212846C3E900449C6005F063FD2E
:103760001A4A0121284605F05EFD194A042128461F
:1037700005F059FD2B6817495A6842F400025A6057
:103780005A6902F07F4242F01E025A611A6842F002
:1037900080621A6028464FF4007205F0E1FD50B9CE
:1037A0003A2002F0D9FC3C2002F0D6FC342002F092
:1037B000D3FC012038BD2046FCE700BFB03100201B
:1037C000AC91002009360008A42D00208D36000899
:1037D0000F360008A429002010B50446FDF76EFB43
:1037E00081B22046BDE81040FFF780BF07B502A8B0
:1037F000002300F8013D0121FFF74AFF0028CCBF5C
:103800009DF807004FF0FF3003B05DF804FB0000A7
:1038100008B5084B1B68DA69120505D54FF400623C
:103820001A620120FFF79EFE0248BDE8084005F03D
:10383000DFBD00BFAC91002038B50A4D2B7873B1C5
:10384000094C0021206805F065F80021206805F08A
:10385000DBFB2368186A02F0D6FC00232B700120E2
:1038600038BD00BFC8410020C441002038B5FFF773
:10387000E3FF0E4B1B7803F0FF05ABB94FF480510B
:1038800001220B480B4C02F05DFE0B4A206801231D
:1038900013700A4A13704FF49673C36005F0FCFB73
:1038A0002946206805F002FB012038BDBD410020FB
:1038B00000080048C4410020C8410020BE4100204B
:1038C00008B5012000F016FC012000F02DFC0120BD
:1038D00000F01CFCBDE80840FFF7AEBF0A4B1A78A9
:1038E0000A4B10B562B10A4A12784AB10122094C5A
:1038F0001A7023781BB1FFF79FFF0023237010BDC0
:1039000000221A70FBE700BFBF410020BD4100202C
:10391000C0410020BE410020014B1878704700BF15
:10392000BD41002038B50F4C06F0BCF82268821A61
:103930000A2A054613D94FF400614FF0904002F077
:10394000FBFD094BB0FA80F0400918701B7803F0BA
:10395000FF0003B1012000F0CDFBFFF7BFFF2560A2
:1039600038BD00BFCC410020BF41002038B50F4C0E
:1039700006F098F82268821A0A2A054613D94FF4ED
:1039800080514FF0904002F0D7FD094BB0FA80F023
:10399000400918701B7803F0FF0003B1012000F00C
:1039A000C3FBFFF79BFF256038BD00BFD04100205F
:1039B000C041002038B50A4C06F074F82268821A1B
:1039C0000A2A05460AD94FF480614FF0904002F070
:1039D000B3FD044B003018BF01201870256038BDBE
:1039E000D4410020BC41002002460421014802F0DD
:1039F000A9BD00BF000C004873B50E460446FFF792
:103A00001BFF2EB30120FFF7EFFF134D13484FF4B8
:103A10008051002202F096FD114B286801221A7095
:103A200034F8023BC36005F037FB2B68186A02F0DC
:103A3000C3FB0021286805F08BFA013E00230093A8
:103A4000019623464FF480720B21286804F0F6FE9D
:103A5000012002B070BD00BFC44100200008004832
:103A6000C84100202DE9F041384CD4F80080B8F16D
:103A7000000F68D1364A374820600E2104F07AFFE3
:103A80004FF480614FF0904002F056FD324B334DC1
:103A9000334E344F003018BF012018704FF40061CE
:103AA0004FF0904002F048FD2F4BB0FA80F04009F3
:103AB0004FF4805118704FF0904002F03DFD2B4BB9
:103AC000B0FA80F040091870FFF708FF206804F092
:103AD000B3FD0120FFF788FF2B78FBB14FF4805135
:103AE0004246234802F02EFD20684FF4C873C3609D
:103AF00005F0D2FA012341462068337087F8008030
:103B000005F0D4F92B78002BFCD1C82005F0D0FFAC
:103B1000FFF792FE4FF4FA7005F0CAFF01224FF44E
:103B2000805113483A70327002F00CFD20684FF457
:103B3000C873C36005F0B0FA0021206805F0B6F93B
:103B40002B78002BFCD00120BDE8F081C44100207F
:103B5000C138000858920020BC410020BD4100201F
:103B6000C8410020BE410020BF410020C0410020CC
:103B70000008004870B5254A156886B0002D41D16F
:103B8000234B1360234A9A67186801220C2105F021
:103B90004BF901244FF4005601A91F480595CDE9C2
:103BA0000164CDE9035502F0F7FB2A4631461A4875
:103BB00002F0C8FC4FF4804601A91748CDE9016422
:103BC000CDE9035502F0E8FB22463146124802F0E7
:103BD000B9FC22462146104802F0B4FC22462021BE
:103BE0000E4802F0AFFC22464FF480610A4802F012
:103BF000A9FC0821094802F09FFC094BB0FA80F0AB
:103C000040091870012006B070BD00BFDC410020E3
:103C100074900020153D000800040048000800488A
:103C2000D841002038B5164C236805462BB310B395
:103C3000FCF728FC41EC100B05F04EFF51EC100B8B
:103C4000FCF74CFF4FF4C86358430E4B18602368D1
:103C50000D481B689C22DA62EA43D20F4FF40061E0
:103C600002F070FC084800224FF4806102F06AFC08
:103C7000206804F011FD012000E0184638BD00BFA7
:103C8000DC410020E44100200004004810B50F4C46
:103C90002068D0B100224FF400610D4802F052FCC0
:103CA00000224FF480610A4802F04CFC206803684F
:103CB0009C22DA62074B01221A7004F0EDFC064ADE
:103CC000137803F0FF00002BFAD010BDDC41002078
:103CD00000040048D9410020D8410020094B186851
:103CE00010B5002460B104F0BFFC074B07481C70FE
:103CF000074B01224FF480611C6002F023FC01207D
:103D000010BD00BFDC410020D94100200004004864
:103D1000E4410020064B1B7810B53BB9054C2368E5
:103D20000BB9FFF7DBFF2368013B236010BD00BF29
:103D3000D9410020E4410020014B1878704700BFB2
:103D4000E0410020014B1878704700BFD8410020A7
:103D500038B50D4C05F0A6FE2268821A142A0546D5
:103D60000FD90821094802F0E7FB094BB0FA80F0AF
:103D7000400918701B7823B1064B1B780BB1FFF775
:103D8000ADFF256038BD00BFE841002000080048B5
:103D9000D8410020D941002070470000044A05485E
:103DA000032313708021044A006803F0D5BB00BFD1
:103DB00058950020F841002001420020044B05489E
:103DC00004221A70D0210223034A006803F0C4BB06
:103DD00058950020F8410020FC4100202DE9F047D3
:103DE000554D2B78013B0446032B11D8DFE803F037
:103DF0000E384A0203F006FD042803D1BDE8F0475F
:103E0000FFF7DCBF204603F0FDFC18B100232B7048
:103E1000BDE8F087204603F0F5FCE8B9474B187879
:103E2000820919D15B78464A9FED467A1268464965
:103E3000526A0C8843EA00231BB207EE903AF8EE70
:103E4000E77A424B77EEC77A9FED417A67EE877A41
:103E500092B2C3ED007A0A80BDE8F047FFF79EBF3B
:103E600003F0D0FC042807D120460123394A8021E1
:103E7000BDE8F04703F02CBB204603F0C3FC00284C
:103E8000C4D1E9E703F0BEFC0428B7D0204603F014
:103E9000B9FC0028BAD1304A11785378FF2904D1EF
:103EA000FF2B02D19278FF2AA8D043EA01231BB24C
:103EB00007EE903A224A9FED297A1268284D546AFB
:103EC000284B2A88284EF8EEE77AA4B267EE877A64
:103ED0009FED267AC3ED007AD3F800A03768A31AC5
:103EE0009BB207EE903AF8EE677A67EE877A17EEA4
:103EF000900AFCF7D9FA804650468946FCF7D4FA76
:103F00004FF011321A4BFCF727FB02460B46404696
:103F10004946FCF721FB804638468946FCF7C4FA3F
:103F200002460B4640464946FCF760F9FCF7F6FDB1
:103F300030602C8090E700BF58950020FC410020A5
:103F4000B493002000C0CC4404420020EC41002087
:103F500075F24B3C54B3000801420020C1091CBC5F
:103F600006420020F0410020F44100206F12833A05
:103F70001111913F2DE9F7433A4E3368002B6ED172
:103F8000DFF8EC80384DDFF8049101240223610052
:103F900089B21A46404603F073FB074670B94FF0EA
:103FA000FF31286800F0D8FD2146484606F046F962
:103FB0003B463A463946286800F01AFC01347F2C0B
:103FC000E4D14FF47A7500950323284A28488021CC
:103FD00003F0ECF910B1274806F030F9244C0095B5
:103FE0000123254A8021204603F04EF918B1002014
:103FF00003B0BDE8F083642005F05AFD009501236D
:104000001E4A8021204603F03FF90028EFD11C4FC3
:10401000642005F04DFD009503233A46802120469B
:1040200003F0C4F90028E2D13A787B7843EA02230E
:1040300023F002039BB2134A190A51709370802136
:1040400000950323204603F01FF90028CFD16420F8
:1040500005F02EFD0C4B3460C4E91333A366012038
:10406000C6E700BFF8410020208F00200142002059
:10407000B48F002076B3000856B3000855B300088B
:10408000FE41002004000020DD3D000857B3000879
:10409000014B93ED000A7047F0410020014B93ED76
:1040A000000A7047EC410020014B93ED000A704775
:1040B000F441002038B50B4D0B4C0C4804F0BCFA11
:1040C0002A4601238021206803F002FA084B206869
:1040D00002221A70802101232A4603F0F9F90120F7
:1040E00038BD00BF54B30008F8410020B49300204D
:1040F0005895002008B5431E5A425A418021024873
:1041000002F020FA012008BD0008004808B5431E4F
:104110005A425A414FF48071024802F013FA0120CA
:1041200008BD00BF0008004808B5431E5A425A4166
:104130004021024802F006FA012008BD00080048AC
:104140000120704708B500220121024802F0FAF967
:10415000012008BD0008004808B5012211460248A8
:1041600002F0F0F9012008BD0008004808B5102150
:10417000034802F0E1F9B0FA80F0400908BD00BF41
:104180000008004880F001020421014802F0DAB979
:1041900000040048034B0360034B0B608023136053
:1041A000704700BF0844002008420020034B036012
:1041B000034B0B604FF4807313607047644800201A
:1041C00064440020F7B5114C01F0FCFD2568BDB931
:1041D0000F4F104E384601F061FC304601F05EFC96
:1041E0000D4B0E4A1F600E4B10211E600A200095D9
:1041F0000C4B00F089FA206010B10B4900F06EFD05
:1042000003B0BDE8F04001F0FFBD00BFE44900206D
:10421000684900207C490020C0480020C848002090
:10422000C448002094490020B9B30008914208B561
:10423000416000610AD8D21A83699A420DD2084BB4
:10424000011D186801F044FC002008BD9A4201D20B
:10425000994202D2011D034BF3E70120F5E700BFAD
:10426000C4480020C048002010B588B0FFF7AAFF5E
:10427000124B1B68B3B1002407AA06A905A8CDE913
:104280000544FFF793FF059B0293069B01930223CE
:104290000093079A0A490B48234600F0B3FE0A4BE5
:1042A000186040B94FF0500383F31188BFF36F8F4C
:1042B000BFF34F8FFEE7012008B010BDE449002096
:1042C000BEB30008A1430008E849002030B51546F8
:1042D00085B01A46034640B94FF0500383F3118866
:1042E000BFF36F8FBFF34F8FFEE70D4C206880B197
:1042F0000529CDE9001502930DDC01F0D7F9002363
:10430000022808BF089A206818BF1A46694600F0BC
:104310006FFA05B030BD0023694600F01BFBF8E7DB
:10432000E44900202DE9F3411B4D4FF000082B68B4
:104330001A6832B9194A11682960136002B0BDE8E1
:10434000F081DB68DC681E68271D384601F0D7FB6A
:10435000636A20469847E369012BE8D1A369334497
:104360009E4206D2636024613946286801F0B0FBA2
:10437000DDE70023CDF80080324619462046FFF7DE
:10438000A5FF0028D3D14FF0500383F31188BFF36A
:104390006F8FBFF34F8FFEE7C0480020C448002056
:1043A0002DE9F04F6D4DDFF8C48187B02F462B68A3
:1043B000D3F800B0BBF1000F4BD0DB68D3F800A0FE
:1043C000674C00F0C7FE00F0CDFE2368984281469E
:1043D000264640D2FFF7A6FFC4F8009000F058FF31
:1043E000DFF88491D9F80000002202A900F014FB44
:1043F0000028DCD0029B002B03DADDE90401039BDB
:104400009847029B002BEDDB049C636913B1201DD0
:1044100001F075FB00F0A6FE33689842834601D296
:10442000FFF780FF029AC6F800B0092ADAD8012304
:10443000934013F4047A7ED113F0C70F54D19B0636
:10444000D0D594F82C30002BCCD1204601F018FCAC
:10445000C8E7DA46B4E72060BBF1000F29D08245F7
:1044600040D800F015FF3B68DB68DC68201D01F0D8
:1044700046FBE369012B18D1A16953464A465144D2
:104480002046FFF7D3FE80B1002300935246194621
:104490002046FFF71BFF40B94FF0500383F311880C
:1044A000BFF36F8FBFF34F8FFEE7636A20469847D5
:1044B00096E72C4B1B681A68B2FA82F252092A4B13
:1044C000AAEB0901186800F01BFC00F0E1FE0028CF
:1044D00086D14FF08053C8F80030BFF34F8FBFF341
:1044E0006F8F7DE70022EAE7A169039B5A461944D2
:1044F0002046FFF79BFE00283FF474AF636A204616
:104500009847E369012B7FF46DAFA2690399CDF859
:1045100000A00A44534651462046FFF7D7FE002824
:104520007FF460AF4FF0500383F31188BFF36F8FB8
:10453000BFF34F8FFEE70399A16141B94FF05003DC
:1045400083F31188BFF36F8FBFF34F8FFEE75B4696
:104550005A4659442046FFF769FE43E7C048002009
:1045600090490020C4480020E449002004ED00E008
:1045700010B5044601F026FCA46B01F045FCB4FA2A
:1045800084F0400910BD70B51546026C866B044678
:1045900042B905689DB9406801F0DAF865600136F6
:1045A000A66370BD6DB9806805F06EFBA368226CD0
:1045B00013446268A360934201D32368A360002080
:1045C000EDE7C06805F060FB236CE26821685B42A0
:1045D0001A448A42E2603EBF62689B18E360022D83
:1045E000EDD10EB1013EEAE73046D8E7034610B4FC
:1045F0001A6C084662B1D9685C681144A142D9605E
:1046000024BF1968D960D9685DF8044B05F03CBB3C
:104610005DF8044B704770B5044601F0D3FB94F885
:10462000455004F124066DB2002D14DCFF2384F8FC
:10463000453001F0E9FB01F0C5FB94F8445004F16A
:1046400010066DB2002D12DCFF2384F84430BDE863
:10465000704001F0D9BB636A002BE7D0304600F010
:104660004FFF08B101F016F8013D6DB2DCE7236998
:10467000002BE9D0304600F043FF08B101F00AF802
:10468000013D6DB2DEE7000038B50D46044640B985
:104690004FF0500383F31188BFF36F8FBFF34F8F39
:1046A000FEE701F08FFBD4E90F302268A26043439C
:1046B000D1181B1A13446160E3600021FF23A1633A
:1046C00084F8443084F8453095B9236963B104F126
:1046D000100000F015FF38B10A4B4FF080521A60FD
:1046E000BFF34F8FBFF36F8F01F08EFB012038BDFA
:1046F00004F1100001F0D2F904F1240001F0CEF928
:10470000F2E700BF04ED00E013B51C4640B94FF0DE
:10471000500383F31188BFF36F8FBFF34F8FFEE712
:1047200043B94FF0500383F31188BFF36F8FBFF38A
:104730004F8FFEE74AB191B94FF0500383F31188D0
:10474000BFF36F8FBFF34F8FFEE741B14FF05003C0
:1047500083F31188BFF36F8FBFF34F8FFEE75023B2
:104760000193019B502B08D04FF0500383F3118825
:10477000BFF36F8FBFF34F8FFEE70123002908BF00
:104780002246C4E90F0184F84630194622602046CB
:10479000FFF77AFF9DF8103084F84C30204602B0C5
:1047A00010BDF8B50D461746064640B94FF0500308
:1047B00083F31188BFF36F8FBFF34F8FFEE748433A
:1047C000503001F0D1F9044670B1002380F8463032
:1047D00065B100F150032360C4E90F650121204653
:1047E000FFF752FF84F84C702046F8BD0346F2E70D
:1047F0002DE9FF47884601921F46044640B94FF015
:10480000500383F31188BFF36F8FBFF34F8FFEE721
:1048100051B9036C43B14FF0500383F31188BFF3D8
:104820006F8FBFF34F8FFEE7022F0BD1E36B012B8E
:1048300008D04FF0500383F31188BFF36F8FBFF39D
:104840004F8FFEE700F032FF50B9019E4EB14FF09E
:10485000500383F31188BFF36F8FBFF34F8FFEE7D1
:1048600000264FF00009DFF8E8A037E0019D1DB9F0
:1048700001F0CAFA002050E016B902A800F0C2FE0A
:1048800001F0C2FA00F066FC01F09CFA94F84430A2
:10489000FF2B08BF84F8449094F84530FF2B08BFE5
:1048A00084F8459001F0B0FA01A902A800F0B6FE24
:1048B000002846D101F086FAA26BE36B9A422FD111
:1048C00001F0A2FA019904F1100000F0B5FD2046B4
:1048D000FFF7A1FE00F0DCFC50B3012601F072FAF4
:1048E000A26BE36B9A4201D3022FBFD13A464146F5
:1048F0002046FFF748FE636A1BB104F1240000F074
:10490000FFFD38B1124B4FF080521A60BFF34F8F4A
:10491000BFF36F8F01F078FA012004B0BDE8F08793
:1049200001F072FA2046FFF776FE00F0B1FCD4E702
:104930004FF08053CAF80030BFF34F8FBFF36F8F33
:10494000CBE72046FFF767FE00F0A2FC92E700BF2E
:1049500004ED00E02DE9F843894690461F460446E1
:1049600040B94FF0500383F31188BFF36F8FBFF34B
:104970004F8FFEE751B9036C43B14FF0500383F3FF
:104980001188BFF36F8FBFF34F8FFEE7022F0BD15C
:10499000E36B012B08D04FF0500383F31188BFF372
:1049A0006F8FBFF34F8FFEE701F02AFBEFF3118605
:1049B0004FF0500383F31188BFF36F8FBFF34F8F16
:1049C000A26BE36B9A4201D3022F22D194F8455097
:1049D0003A466DB249462046FFF7D5FD6B1C13D110
:1049E000636A0BB901200BE004F1240000F088FD9C
:1049F0000028F7D0B8F1000FF4D00120C8F800006B
:104A000086F31188BDE8F88301356DB284F845500E
:104A1000E8E70020F4E700002DE9F04385B00F46F9
:104A20000192044640B94FF0500383F31188BFF35D
:104A30006F8FBFF34F8FFEE751B9036C43B14FF057
:104A4000500383F31188BFF36F8FBFF34F8FFEE7DF
:104A500000F02CFE50B9019E4EB14FF0500383F38D
:104A60001188BFF36F8FBFF34F8FFEE700264FF023
:104A70000008DFF8E0903BE0019D1DB901F0C4F9AA
:104A8000002052E016B902A800F0BCFD01F0BCF90C
:104A900000F060FB01F096F994F84430FF2B08BF5A
:104AA00084F8448094F84530FF2B08BF84F8458093
:104AB00001F0AAF901A902A800F0B0FD00283DD13B
:104AC0002046FFF755FD98B3019904F1240000F04A
:104AD000B3FC2046FFF79FFD00F0DAFB38B94FF03A
:104AE0008053C9F80030BFF34F8FBFF36F8F01269B
:104AF00001F068F9A56B002DBED039462046013D76
:104B0000FFF774FDA563236963B104F1100000F0A1
:104B1000F7FC38B10F4B4FF080521A60BFF34F8F44
:104B2000BFF36F8F01F070F9012005B0BDE8F0838D
:104B30002046FFF770FD00F0ABFBD8E72046FFF7FB
:104B40006AFD00F0A5FB2046FFF712FD0028CED03D
:104B500096E700BF04ED00E02DE9FF410446019116
:104B600040B94FF0500383F31188BFF36F8FBFF349
:104B70004F8FFEE7056C45B14FF0500383F311886A
:104B8000BFF36F8FBFF34F8FFEE700F08FFD50B97B
:104B9000019D45B14FF0500383F31188BFF36F8F30
:104BA000BFF34F8FFEE72E460027DFF82C814FE042
:104BB000019B63B945B14FF0500383F31188BFF3F4
:104BC0006F8FBFF34F8FFEE701F01EF95EE016B95D
:104BD00002A800F017FD01F017F900F0BBFA01F090
:104BE000F1F894F84430FF2B08BF84F8447094F82F
:104BF0004530FF2B08BF84F8457001F005F901A985
:104C000002A800F00BFD00284AD12046FFF7B0FCB7
:104C100000283FD023683BB901F0D4F8606800F069
:104C200055FD054601F0F0F8019904F1240000F06B
:104C300003FC2046FFF7EFFC00F02AFB38B94FF0E9
:104C40008053C8F80030BFF34F8FBFF36F8F01263A
:104C500001F0B8F8A36B002BAAD0013BA363236833
:104C600013B900F011FE6060236963B104F1100014
:104C700000F046FC38B1184B4FF080521A60BFF379
:104C80004F8FBFF36F8F01F0BFF80125284604B0A6
:104C9000BDE8F0812046FFF7BEFC00F0F9FAD6E748
:104CA0002046FFF7B8FC00F0F3FA2046FFF760FC5F
:104CB0000028CCD0002DE9D001F084F8616A19B148
:104CC000236B1968C1F13801606800F083FD00258D
:104CD00001F09AF8DAE700BF04ED00E030B5074ACA
:104CE000002352F8335002EBC3041DB942F83310CD
:104CF000606030BD0133082BF3D1FAE75C950020EA
:104D000070B504460D46164601F05CF894F8443040
:104D1000FF2B04BF002384F8443094F84530FF2B68
:104D200004BF002384F8453001F06EF8A36B2BB963
:104D30003246294604F1240000F0C4FB2046BDE8B9
:104D40007040FFF768BC00002DE9F041044601F017
:104D500039F82F4B2F4D1A682F4F01321A602E68E9
:104D6000002E49D12C601B68012B1FD14FF0140875
:104D700008FB0670013600F091FE382EF8D1DFF8FE
:104D8000C480264E404600F089FE304600F086FE84
:104D9000234800F083FE234800F080FE224800F004
:104DA0007DFE224BC3F80080214B1E60214A136810
:104DB00001331360204A63641168E36A14208B4254
:104DC00000FB037004F1040188BF136000F074FE5F
:104DD00001F01AF8194B1B6863B12B68DA6AE36AB1
:104DE0009A4207D2164B4FF080521A60BFF34F8F92
:104DF000BFF36F8FBDE8F081104B1B68002BD5D13E
:104E00002B68DA6AE36A9A4298BF2C60CEE700BF4B
:104E1000584E0020EC490020F8490020844E002024
:104E2000A04E0020CC4E0020B84E0020F0490020BB
:104E3000F4490020684E00206C4E0020B44E002043
:104E400004ED00E0704E002010B590F85930044693
:104E50003BB9006B00F014FF2046BDE8104000F0A5
:104E60000FBF012BF9D0022B08D04FF0500383F372
:104E70001188BFF36F8FBFF34F8FFEE710BD0000A7
:104E800080B5DFF85C80124F124C134D236863B974
:104E9000124B1B68012BF8D94FF08053C8F8003033
:104EA000BFF34F8FBFF36F8FEEE700F08BFFFB6810
:104EB000DE68301D00F023FE2B68013B2B60236869
:104EC000013B236000F0A0FF3046FFF7BDFFDDE7A8
:104ED000CC4E00205C4E0020584E0020F8490020A7
:104EE00004ED00E0064A13681968064B19B94FF043
:104EF000FF321A6070471268D268D2685268F8E7C9
:104F0000F0490020984E00202DE9F047DDE90974B2
:104F100096000D4632468046A521206B994604F046
:104F2000BEFE236B043E1E4426F007066B1E04F1F2
:104F300034020F3513F8011F02F8011B197809B16B
:104F4000AB42F7D1089D372D28BF37254FF0000A17
:104F5000E562C4E9135A201D84F843A000F0A9FDBE
:104F6000C5F1380504F1180000F0A3FDC4F854A001
:104F70002461A561646284F858A04A4641463046DF
:104F800000F0F4FE206007B13C60BDE8F08700004F
:104F9000F8B5164B164E1C680546306804300F46AF
:104FA00000F0ADFD6B1C334607D137B131681148B5
:104FB0000431BDE8F84000F07FBD1A686419546000
:104FC00007D30D4A10681968BDE8F840043100F0B5
:104FD0007FBD0A4A10681968043100F079FD084B5A
:104FE0001A68A24288BF1C60F8BD00BFE04E0020D6
:104FF000EC490020B84E0020F4490020F049002080
:10500000984E002070B586B0DDE90B5445B94FF0DD
:10501000500383F31188BFF36F8FBFF34F8FFEE709
:1050200044B94FF0500383F31188BFF36F8FBFF380
:105030004F8FFEE75C260496049E5C2E08D04FF04E
:10504000500383F31188BFF36F8FBFF34F8FFEE7D9
:105050002563022584F8595005AD01950A9D0294F7
:105060000095FFF751FF2046FFF76EFE059806B04A
:1050700070BD2DE9F043074685B09000884616467E
:10508000994600F071FD0546E8B15C2000F06CFD2A
:105090000446A8B1002380F859300D9B05630193A5
:1050A0000C9B0290009332464B4641463846FFF730
:1050B0002BFF2046FFF748FE012005B0BDE8F08336
:1050C000284600F0DDFD4FF0FF30F6E710B588B060
:1050D000002407AA06A905A8CDE90544FFF75AF858
:1050E000059B0293069B079A15491648CDE9004394
:1050F0002346FFF787FFA8B1FFF7B6F8012813D1C1
:105100004FF0500383F31188BFF36F8FBFF34F8FBE
:105110000D4B4FF0FF321A600C4B18600C4B1C60AB
:1051200000F0E8FE08B010BD0130FBD14FF0500395
:1051300083F31188BFF36F8FBFF34F8FFEE700BF7C
:10514000C6B30008814E0008984E0020B44E0020DF
:10515000E04E0020024A136801331360704700BF1D
:10516000644E0020014B1868704700BFE04E0020DD
:105170002DE9F84F3B4B1B68002B6CD13A4B1C6858
:1051800001341C60BCB9394B1A68126842B14FF047
:10519000500383F31188BFF36F8FBFF34F8FFEE788
:1051A000334A1968106818601160324A1368013375
:1051B0001360FFF797FE304D304F2B68A3424FF03E
:1051C000000B11D93A682E4BD16A14224A439A58DF
:1051D000022A28BF4FF0010B2A4A1268002A0CBF8E
:1051E00058460120BDE8F88FDFF88090DFF89CA0DA
:1051F000D9F8002012681AB94FF0FF322A60E1E7AF
:10520000D9F80020D268D66871688C4201D2296032
:10521000D8E706F10408404600F071FCB16A19B104
:1052200006F1180000F06BFCF06ADAF80010144B7D
:1052300088424FF0140288BFCAF80000414602FBC2
:10524000003000F039FC3868F16AC26A914228BF28
:105250004FF0010BCCE70C4A1368013313604FF099
:10526000000BB9E7644E0020E04E0020F04900201A
:10527000F44900209C4E0020984E0020EC4900206C
:10528000F8490020E44E0020604E00206C4E0020C3
:105290002DE9F0412F4C236843B94FF0500383F3BD
:1052A0001188BFF36F8FBFF34F8FFEE700F08AFDC9
:1052B0002368013B236024682CB1002400F0A4FD86
:1052C0002046BDE8F081244B1B68002BF5D0234D10
:1052D000234EDFF8A0801DE0EB68DC68271D04F199
:1052E000180000F00CFC384600F009FCE36A326854
:1052F0001420934200FB0380394688BF336000F0DE
:10530000DBFB184BE26A1B68DB6A9A4202D3164B3E
:1053100001221A602B68002BDED10CB1FFF7E2FDF1
:10532000124D2C6844B1104E0127FFF721FF00B148
:105330003760013CF9D12C600B4B1B68002BBCD0B3
:105340000B4B4FF080521A60BFF34F8FBFF36F8F3C
:105350000124B3E7644E0020584E0020A04E0020E8
:105360006C4E0020EC490020E44E0020604E0020EE
:1053700004ED00E0F849002008B540B90E4B4FF0AD
:1053800080521A60BFF34F8FBFF36F8F08BD0B4B76
:10539000196841B14FF0500383F31188BFF36F8F49
:1053A000BFF34F8FFEE7FFF7D5FEFFF7F1FDFFF7E5
:1053B0006FFF0028E2D0E9E704ED00E0644E002032
:1053C000184B1A68184BF0B512B101221A60F0BDE3
:1053D000164D1A60164A2B681427164607FB03F170
:1053E000501854588CB144680831646844600A44C9
:1053F000944204BF62684260142202FB0362526856
:10540000D1680C4A11602B60E1E743B94FF05003BB
:1054100083F31188BFF36F8FBFF34F8FFEE7013B1C
:10542000DCE700BF644E0020E44E00206C4E0020FC
:10543000F8490020EC49002010B50C4640B94FF067
:10544000500383F31188BFF36F8FBFF34F8FFEE7D5
:10545000054B1968183100F03BFB20460121BDE8DF
:105460001040FFF795BD00BFEC49002010B5144671
:1054700040B94FF0500383F31188BFF36F8FBFF330
:105480004F8FFEE70D4B1B6843B94FF0500383F37A
:105490001188BFF36F8FBFF34F8FFEE7084B1A6879
:1054A00041F0004191611968183100F005FB204678
:1054B0000121BDE81040FFF76BBD00BF644E002026
:1054C000EC49002038B50D46144640B94FF0500362
:1054D00083F31188BFF36F8FBFF34F8FFEE7074B46
:1054E0001968183100F0E8FA002C21460CBF284654
:1054F0004FF0FF30BDE83840FFF74ABDEC490020CF
:1055000038B5C368DC6844B94FF0500383F31188A1
:10551000BFF36F8FBFF34F8FFEE704F118052846E6
:1055200000F0EDFA104B1B68DBB9251D284600F092
:10553000E6FA0E4AE36A11688B4288BF13600C4A90
:105540001420294600FB032000F0B6FA094BE26A5A
:105550001B68DB6A9A4283BF074B0120186000205A
:1055600038BD29460548EFE7644E00206C4E002008
:10557000F8490020EC490020E44E0020A04E002015
:105580001B4A126838B542B94FF0500383F31188B3
:10559000BFF36F8FBFF34F8FFEE7C46841F0004148
:1055A000016044B94FF0500383F31188BFF36F8F4C
:1055B000BFF34F8FFEE7251D00F0A1FA284600F04B
:1055C0009EFA0C4AE36A11688B4288BF13600A4A4C
:1055D000142000FB0320294600F06EFA074BE26A14
:1055E0001B68DB6A9A4282BF054B01221A6038BDF4
:1055F000644E00206C4E0020F8490020EC49002049
:10560000E44E0020034B1B680360034B1B684360A0
:10561000704700BF9C4E0020E04E0020F8B50C46BD
:10562000054640B94FF0500383F31188BFF36F8FE5
:10563000BFF34F8FFEE741B94FF0500383F311885A
:10564000BFF36F8FBFF34F8FFEE700F0BBFB0F4B35
:105650006868196823685E1CA1EB00020DD00C4E2F
:105660002F683668B74201D088420DD9934209D9D4
:105670009B1A23602846FFF7C5FF002400F0C4FBF7
:105680002046F8BD002323600124F7E7E04E002008
:105690009C4E0020014B01221A607047E44E00200E
:1056A000014B1868704700BFEC490020054B1B6890
:1056B00033B1054B1B68002B0CBF02200020704744
:1056C00001207047B44E0020644E0020F8B5044617
:1056D00000282BD01B4AC36A1168C96A8B42164640
:1056E00027D28269184D002AA1BF3268D26AC2F15E
:1056F00038028261142202FB035342699A4211D19B
:10570000071D384600F0FBF93368104ADB6A116860
:10571000E3628B420BD81420394600FB035000F0A3
:10572000CBF902E03368DB6AC3620120F8BD136085
:10573000F1E71368C06CDC6AA0422CBF0020012096
:10574000F4E700BFEC490020F84900206C4E00202F
:1057500038B508B9002038BD1B4B1C68844208D0FE
:105760004FF0500383F31188BFF36F8FBFF34F8F58
:10577000FEE7236D43B94FF0500383F31188BFF365
:105780006F8FBFF34F8FFEE7E16AE26C013B9142FE
:105790002365DFD0002BDDD1251D284600F0AFF9B1
:1057A000E36CE362C3F13802A261084A11688B42DC
:1057B00088BF1360064A142000FB0320294600F02E
:1057C0007BF90120C7E700BFEC4900206C4E0020A8
:1057D000F849002070B50446002841D0026D42B956
:1057E0004FF0500383F31188BFF36F8FBFF34F8FD8
:1057F000FEE7C36C994238BF1946C36A8B422FD06B
:10580000012A2DD1174A1268824208D14FF0500365
:1058100083F31188BFF36F8FBFF34F8FFEE7826969
:10582000114DC162002A4FF0140202FB035342697A
:10583000A4BFC1F1380181619A4211D1061D3046E1
:1058400000F05DF9094AE36A116814208B4200FBFD
:1058500003503146BDE8704088BF136000F02CB99A
:1058600070BD00BFEC490020F84900206C4E0020BC
:10587000044B1A68196890691A68CB6AC3F1380337
:1058800093617047EC490020044B1A681AB11968FB
:105890000A6D01320A651868704700BFEC490020A4
:1058A00038B5202000F060F9044628B1002540F802
:1058B000045B00F0F3F82577204638BD2DE9F0476A
:1058C000089F0C4690469946064640B94FF0500353
:1058D00083F31188BFF36F8FBFF34F8FFEE711F093
:1058E0007F4A08D04FF0500383F31188BFF36F8FC6
:1058F000BFF34F8FFEE741B94FF0500383F3118898
:10590000BFF36F8FBFF34F8FFEE7FFF7CFFE48B9AE
:1059100047B14FF0500383F31188BFF36F8FBFF38C
:105920004F8FFEE7FFF716FC356804EA0503B9F16F
:10593000000F15D1B3B9002F3DD0B8F1000F0CBF47
:1059400000214FF08071B9F1000F01D041F080616A
:105950003A462143301DFFF789FDBA46002507E08E
:105960009C42E8D1B8F1000F02D025EA040333606D
:10597000FFF78EFCBAF1000F1AD038B9134B4FF075
:1059800080521A60BFF34F8FBFF36F8FFFF770FF26
:10599000830105460AD400F015FA356804EA0503C8
:1059A000B9F1000F09D153B900F02EFA25F07F4567
:1059B0002846BDE8F087BA46DAE79C42F4D1B8F150
:1059C000000FF1D025EA04043460EDE704ED00E0B7
:1059D00070B50C46054640B94FF0500383F311886B
:1059E000BFF36F8FBFF34F8FFEE711F07F4F08D0EB
:1059F0004FF0500383F31188BFF36F8FBFF34F8FC6
:105A0000FEE700F0DFF92E6826EA04042C6000F0BF
:105A1000FBF9304670BD2DE9F0410F46044640B910
:105A20004FF0500383F31188BFF36F8FBFF34F8F95
:105A3000FEE711F07F4508D04FF0500383F3118843
:105A4000BFF36F8FBFF34F8FFEE700F10C06FFF738
:105A500081FB236820693B4323608642216807D18C
:105A600021EA05012160FFF713FC2068BDE8F08101
:105A7000D0E9002822F07F4312F0806F03EA01078B
:105A800002D11FB94046E8E7BB42FBD1D20141F049
:105A9000007148BF1D43FFF773FDF3E700F10803F2
:105AA0004FF0FF324360C0E902230361002303602B
:105AB000704700230361704743684B609A688A60AF
:105AC0009A68516099600368086101330360704708
:105AD0000A68531C30B50AD103695A684A6091605C
